{
	"data": {
		"bytecode": {
			"linkReferences": {},
			"object": "610120604052620186a061010052670de0b6b3a7640000600855348015610024575f5ffd5b506040516125f93803806125f983398101604081905261004391610138565b81815f610050838261026c565b50600161005d828261026c565b5050506001600160a01b03958616608052505091831660a052821660c0521660e052610326565b6001600160a01b0381168114610098575f5ffd5b50565b634e487b7160e01b5f52604160045260245ffd5b5f82601f8301126100be575f5ffd5b81516001600160401b038111156100d7576100d761009b565b604051601f8201601f19908116603f011681016001600160401b03811182821017156101055761010561009b565b60405281815283820160200185101561011c575f5ffd5b8160208501602083015e5f918101602001919091529392505050565b5f5f5f5f5f5f60c0878903121561014d575f5ffd5b865161015881610084565b602088015190965061016981610084565b604088015190955061017a81610084565b606088015190945061018b81610084565b60808801519093506001600160401b038111156101a6575f5ffd5b6101b289828a016100af565b60a089015190935090506001600160401b038111156101cf575f5ffd5b6101db89828a016100af565b9150509295509295509295565b600181811c908216806101fc57607f821691505b60208210810361021a57634e487b7160e01b5f52602260045260245ffd5b50919050565b601f82111561026757805f5260205f20601f840160051c810160208510156102455750805b601f840160051c820191505b81811015610264575f8155600101610251565b50505b505050565b81516001600160401b038111156102855761028561009b565b6102998161029384546101e8565b84610220565b6020601f8211600181146102cb575f83156102b45750848201515b5f19600385901b1c1916600184901b178455610264565b5f84815260208120601f198516915b828110156102fa57878501518255602094850194600190920191016102da565b508482101561031757868401515f19600387901b60f8161c191681555b50505050600190811b01905550565b60805160a05160c05160e051610100516122346103c55f395f81816104520152610e9d01525f8181610288015281816107ae015281816108d60152610cf901525f81816103f10152818161097801528181610b7101528181610bf701528181610c5d01528181610e6e01528181610f50015261119401525f8181610418015261071901525f81816103ca01528181610d7e015261150e01526122345ff3fe608060405234801561000f575f5ffd5b50600436106101bb575f3560e01c806392ca60c1116100f3578063c31c9c0711610093578063c87b56dd1161006e578063c87b56dd1461043a578063ddca3f431461044d578063e985e9c514610474578063fdb05e8514610487575f5ffd5b8063c31c9c07146103c5578063c4d4803a146103ec578063c6bbd5a714610413575f5ffd5b8063a22cb465116100ce578063a22cb46514610383578063a7433a1114610396578063a7c78437146103a9578063b88d4fde146103b2575f5ffd5b806392ca60c11461033757806395d89b4114610372578063968ed6001461037a575f5ffd5b8063365a86fc1161015e5780636352211e116101395780636352211e146102f557806370a0823114610308578063780900dc1461031b57806378a5171a1461032e575f5ffd5b8063365a86fc146102835780633dcc86fa146102aa57806342842e0e146102e2575f5ffd5b8063095ea7b311610199578063095ea7b314610227578063218662051461023c57806323b872dd1461024f578063303026d014610262575f5ffd5b806301ffc9a7146101bf57806306fdde03146101e7578063081812fc146101fc575b5f5ffd5b6101d26101cd366004611a76565b61049a565b60405190151581526020015b60405180910390f35b6101ef6104aa565b6040516101de9190611abf565b61020f61020a366004611ad1565b610539565b6040516001600160a01b0390911681526020016101de565b61023a610235366004611afc565b610560565b005b6101ef61024a366004611c6c565b61056f565b61023a61025d366004611cd1565b610665565b610275610270366004611d0f565b6106f3565b6040519081526020016101de565b61020f7f000000000000000000000000000000000000000000000000000000000000000081565b6102bd6102b8366004611ad1565b6107a7565b604080516001600160a01b0390941684526020840192909252908201526060016101de565b61023a6102f0366004611cd1565b610a4d565b61020f610303366004611ad1565b610a6c565b610275610316366004611d7d565b610a76565b610275610329366004611ad1565b610abb565b61027560085481565b61035d610345366004611ad1565b60096020525f90815260409020805460019091015482565b604080519283526020830191909152016101de565b6101ef610ac6565b61027560075481565b61023a610391366004611da5565b610ad5565b61023a6103a4366004611ddc565b610ae0565b61027560065481565b61023a6103c0366004611e51565b611069565b61020f7f000000000000000000000000000000000000000000000000000000000000000081565b61020f7f000000000000000000000000000000000000000000000000000000000000000081565b61020f7f000000000000000000000000000000000000000000000000000000000000000081565b6101ef610448366004611ad1565b611081565b6102757f000000000000000000000000000000000000000000000000000000000000000081565b6101d2610482366004611f13565b6110f1565b610275610495366004611afc565b61111e565b5f6104a48261129c565b92915050565b60605f80546104b890611f3f565b80601f01602080910402602001604051908101604052809291908181526020018280546104e490611f3f565b801561052f5780601f106105065761010080835404028352916020019161052f565b820191905f5260205f20905b81548152906001019060200180831161051257829003601f168201915b5050505050905090565b5f610543826112eb565b505f828152600460205260409020546001600160a01b03166104a4565b61056b828233611323565b5050565b60606002835110158015610590575081516001845161058e9190611f8b565b145b610598575f5ffd5b604080515f80825260208201909252905b835181101561061357818582815181106105c5576105c5611f9e565b60200260200101518583815181106105df576105df611f9e565b60200260200101516040516020016105f993929190611fc9565b60408051601f1981840301815291905291506001016105a9565b508084600186516106249190611f8b565b8151811061063457610634611f9e565b602002602001015160405160200161064d929190612007565b60408051808303601f19018152919052949350505050565b6001600160a01b03821661069357604051633250574960e11b81525f60048201526024015b60405180910390fd5b5f61069f838333611330565b9050836001600160a01b0316816001600160a01b0316146106ed576040516364283d7b60e01b81526001600160a01b038086166004830152602482018490528216604482015260640161068a565b50505050565b5f5f6106ff858561056f565b60405163cdca175360e01b81529091506001600160a01b037f0000000000000000000000000000000000000000000000000000000000000000169063cdca1753906107509084908790600401612033565b6020604051808303815f875af192505050801561078a575060408051601f3d908101601f1916820190925261078791810190612054565b60015b610797575f9150506107a0565b91506107a09050565b9392505050565b5f5f5f5f5f7f00000000000000000000000000000000000000000000000000000000000000006001600160a01b0316638f1d3776876040518263ffffffff1660e01b81526004016107fa91815260200190565b608060405180830381865afa158015610815573d5f5f3e3d5ffd5b505050506040513d601f19601f82011682018060405250810190610839919061206b565b9350935050505f826001600160a01b031663d8dfeb456040518163ffffffff1660e01b8152600401602060405180830381865afa15801561087c573d5f5f3e3d5ffd5b505050506040513d601f19601f820116820180604052508101906108a091906120c7565b9050815f036108b95794505f9350839250610a46915050565b6040516373650ef960e11b815263ffffffff881660048201525f907f00000000000000000000000000000000000000000000000000000000000000006001600160a01b03169063e6ca1df290602401602060405180830381865afa158015610923573d5f5f3e3d5ffd5b505050506040513d601f19601f820116820180604052508101906109479190612054565b9050805f03610961575094505f9350839250610a46915050565b6040516370a0823160e01b81523060048201525f907f00000000000000000000000000000000000000000000000000000000000000006001600160a01b0316906370a0823190602401602060405180830381865afa1580156109c5573d5f5f3e3d5ffd5b505050506040513d601f19601f820116820180604052508101906109e99190612054565b90505f826109ff83670de0b6b3a76400006120e2565b610a0991906120f9565b90505f610a168683611422565b90505f670de0b6b3a7640000610a2c86846120e2565b610a3691906120f9565b959a509098509396505050505050505b9193909250565b610a6783838360405180602001604052805f815250611069565b505050565b5f6104a4826112eb565b5f6001600160a01b038216610aa0576040516322718ad960e21b81525f600482015260240161068a565b506001600160a01b03165f9081526003602052604090205490565b5f6104a4338361111e565b6060600180546104b890611f3f565b61056b338383611431565b5f5f5f610aec876107a7565b925092509250826001600160a01b0316865f81518110610b0e57610b0e611f9e565b60200260200101516001600160a01b031614610b6f57855f81518110610b3657610b36611f9e565b602002602001015183604051631631909360e11b815260040161068a9291906001600160a01b0392831681529116602082015260400190565b7f00000000000000000000000000000000000000000000000000000000000000006001600160a01b03168660018851610ba89190611f8b565b81518110610bb857610bb8611f9e565b60200260200101516001600160a01b031614610c46578560018751610bdd9190611f8b565b81518110610bed57610bed611f9e565b60200260200101517f000000000000000000000000000000000000000000000000000000000000000060405163d064a3f760e01b815260040161068a9291906001600160a01b0392831681529116602082015260400190565b6040516370a0823160e01b81523060048201525f907f00000000000000000000000000000000000000000000000000000000000000006001600160a01b0316906370a0823190602401602060405180830381865afa158015610caa573d5f5f3e3d5ffd5b505050506040513d601f19601f82011682018060405250810190610cce9190612054565b604051637eb81bb360e01b815263ffffffff8a166004820152602481018590525f60448201529091507f00000000000000000000000000000000000000000000000000000000000000006001600160a01b031690637eb81bb3906064015f604051808303815f87803b158015610d42575f5ffd5b505af1158015610d54573d5f5f3e3d5ffd5b50506040516370a0823160e01b81523060048201526001600160a01b038716925063095ea7b391507f00000000000000000000000000000000000000000000000000000000000000009083906370a0823190602401602060405180830381865afa158015610dc4573d5f5f3e3d5ffd5b505050506040513d601f19601f82011682018060405250810190610de89190612054565b6040516001600160e01b031960e085901b1681526001600160a01b03909216600483015260248201526044016020604051808303815f875af1158015610e30573d5f5f3e3d5ffd5b505050506040513d601f19601f82011682018060405250810190610e549190612118565b505f610e62888888866114cf565b90506001600160a01b037f00000000000000000000000000000000000000000000000000000000000000001663a9059cbb33620f4240610ec27f0000000000000000000000000000000000000000000000000000000000000000866120e2565b610ecc91906120f9565b6040516001600160e01b031960e085901b1681526001600160a01b03909216600483015260248201526044016020604051808303815f875af1158015610f14573d5f5f3e3d5ffd5b505050506040513d601f19601f82011682018060405250810190610f389190612118565b506040516370a0823160e01b81523060048201525f907f00000000000000000000000000000000000000000000000000000000000000006001600160a01b0316906370a0823190602401602060405180830381865afa158015610f9d573d5f5f3e3d5ffd5b505050506040513d601f19601f82011682018060405250810190610fc19190612054565b905082811015610fee57604051633151a05160e11b8152600481018490526024810182905260440161068a565b5f610ff98483611f8b565b604080518d81526001600160a01b038a166020820152908101889052606081018790526080810185905260a0810182905290915033907fb75d0b7519ef7343aa58024845f6b742c61bab11b677ee9a3a80e005df5dd9869060c00160405180910390a25050505050505050505050565b611074848484610665565b6106ed33858585856115a2565b606061108c826112eb565b505f6110a260408051602081019091525f815290565b90505f8151116110c05760405180602001604052805f8152506107a0565b806110ca846116ca565b6040516020016110db929190612133565b6040516020818303038152906040529392505050565b6001600160a01b039182165f90815260056020908152604080832093909416825291909152205460ff1690565b5f6001600160a01b0383161580611133575081155b156111515760405163a88ee57760e01b815260040160405180910390fd5b600160065f8282546111639190612147565b90915550506040516323b872dd60e01b81526001600160a01b038481166004830152306024830152604482018490527f000000000000000000000000000000000000000000000000000000000000000016906323b872dd906064016020604051808303815f875af11580156111da573d5f5f3e3d5ffd5b505050506040513d601f19601f820116820180604052508101906111fe9190612118565b508160075f8282546112109190612147565b9091555050600680545f90815260096020526040808220859055600854835483529120600101555461124390849061175a565b60065460085460408051928352602083018590528201526001600160a01b038416907f99a12a7aefbbb67909c2bee4a5e2ddb98b2183b8ae2a59e5a7db47f53453345d9060600160405180910390a25060065492915050565b5f6001600160e01b031982166380ac58cd60e01b14806112cc57506001600160e01b03198216635b5e139f60e01b145b806104a457506301ffc9a760e01b6001600160e01b03198316146104a4565b5f818152600260205260408120546001600160a01b0316806104a457604051637e27328960e01b81526004810184905260240161068a565b610a6783838360016117bb565b5f828152600260205260408120546001600160a01b039081169083161561135c5761135c8184866118bf565b6001600160a01b03811615611396576113775f855f5f6117bb565b6001600160a01b0381165f90815260036020526040902080545f190190555b6001600160a01b038516156113c4576001600160a01b0385165f908152600360205260409020805460010190555b5f8481526002602052604080822080546001600160a01b0319166001600160a01b0389811691821790925591518793918516917fddf252ad1be2c89b69c2b068fc378daa952ba7f163c4a11628f55a4df523b3ef91a4949350505050565b5f8282188284100282186107a0565b6001600160a01b03821661146357604051630b61174360e31b81526001600160a01b038316600482015260240161068a565b6001600160a01b038381165f81815260056020908152604080832094871680845294825291829020805460ff191686151590811790915591519182527f17307eab39ab6107e8899845ad3d59bd9653f200f220920489ca2b5937696c31910160405180910390a3505050565b5f5f6040518060a001604052806114e6888861056f565b8152602001306001600160a01b031681526020014281526020018581526020018481525090507f00000000000000000000000000000000000000000000000000000000000000006001600160a01b031663c04b8d59826040518263ffffffff1660e01b8152600401611558919061215a565b6020604051808303815f875af1158015611574573d5f5f3e3d5ffd5b505050506040513d601f19601f820116820180604052508101906115989190612054565b9695505050505050565b6001600160a01b0383163b156116c357604051630a85bd0160e11b81526001600160a01b0384169063150b7a02906115e49088908890879087906004016121b1565b6020604051808303815f875af192505050801561161e575060408051601f3d908101601f1916820190925261161b918101906121e3565b60015b611685573d80801561164b576040519150601f19603f3d011682016040523d82523d5f602084013e611650565b606091505b5080515f0361167d57604051633250574960e11b81526001600160a01b038516600482015260240161068a565b805181602001fd5b6001600160e01b03198116630a85bd0160e11b146116c157604051633250574960e11b81526001600160a01b038516600482015260240161068a565b505b5050505050565b60605f6116d683611923565b60010190505f8167ffffffffffffffff8111156116f5576116f5611b26565b6040519080825280601f01601f19166020018201604052801561171f576020820181803683370190505b5090508181016020015b5f19016f181899199a1a9b1b9c1cb0b131b232b360811b600a86061a8153600a850494508461172957509392505050565b6001600160a01b03821661178357604051633250574960e11b81525f600482015260240161068a565b5f61178f83835f611330565b90506001600160a01b03811615610a67576040516339e3563760e11b81525f600482015260240161068a565b80806117cf57506001600160a01b03821615155b15611890575f6117de846112eb565b90506001600160a01b0383161580159061180a5750826001600160a01b0316816001600160a01b031614155b801561181d575061181b81846110f1565b155b156118465760405163a9fbf51f60e01b81526001600160a01b038416600482015260240161068a565b811561188e5783856001600160a01b0316826001600160a01b03167f8c5be1e5ebec7d5bd14f71427d1e84f3dd0314c0f7b2291e5b200ac8c7c3b92560405160405180910390a45b505b50505f90815260046020526040902080546001600160a01b0319166001600160a01b0392909216919091179055565b6118ca8383836119fa565b610a67576001600160a01b0383166118f857604051637e27328960e01b81526004810182905260240161068a565b60405163177e802f60e01b81526001600160a01b03831660048201526024810182905260440161068a565b5f8072184f03e93ff9f4daa797ed6e38ed64bf6a1f0160401b83106119615772184f03e93ff9f4daa797ed6e38ed64bf6a1f0160401b830492506040015b6d04ee2d6d415b85acef8100000000831061198d576d04ee2d6d415b85acef8100000000830492506020015b662386f26fc1000083106119ab57662386f26fc10000830492506010015b6305f5e10083106119c3576305f5e100830492506008015b61271083106119d757612710830492506004015b606483106119e9576064830492506002015b600a83106104a45760010192915050565b5f6001600160a01b03831615801590611a565750826001600160a01b0316846001600160a01b03161480611a335750611a3384846110f1565b80611a5657505f828152600460205260409020546001600160a01b038481169116145b949350505050565b6001600160e01b031981168114611a73575f5ffd5b50565b5f60208284031215611a86575f5ffd5b81356107a081611a5e565b5f81518084528060208401602086015e5f602082860101526020601f19601f83011685010191505092915050565b602081525f6107a06020830184611a91565b5f60208284031215611ae1575f5ffd5b5035919050565b6001600160a01b0381168114611a73575f5ffd5b5f5f60408385031215611b0d575f5ffd5b8235611b1881611ae8565b946020939093013593505050565b634e487b7160e01b5f52604160045260245ffd5b604051601f8201601f1916810167ffffffffffffffff81118282101715611b6357611b63611b26565b604052919050565b5f67ffffffffffffffff821115611b8457611b84611b26565b5060051b60200190565b5f82601f830112611b9d575f5ffd5b8135611bb0611bab82611b6b565b611b3a565b8082825260208201915060208360051b860101925085831115611bd1575f5ffd5b602085015b83811015611bf7578035611be981611ae8565b835260209283019201611bd6565b5095945050505050565b5f82601f830112611c10575f5ffd5b8135611c1e611bab82611b6b565b8082825260208201915060208360051b860101925085831115611c3f575f5ffd5b602085015b83811015611bf757803562ffffff81168114611c5e575f5ffd5b835260209283019201611c44565b5f5f60408385031215611c7d575f5ffd5b823567ffffffffffffffff811115611c93575f5ffd5b611c9f85828601611b8e565b925050602083013567ffffffffffffffff811115611cbb575f5ffd5b611cc785828601611c01565b9150509250929050565b5f5f5f60608486031215611ce3575f5ffd5b8335611cee81611ae8565b92506020840135611cfe81611ae8565b929592945050506040919091013590565b5f5f5f60608486031215611d21575f5ffd5b833567ffffffffffffffff811115611d37575f5ffd5b611d4386828701611b8e565b935050602084013567ffffffffffffffff811115611d5f575f5ffd5b611d6b86828701611c01565b93969395505050506040919091013590565b5f60208284031215611d8d575f5ffd5b81356107a081611ae8565b8015158114611a73575f5ffd5b5f5f60408385031215611db6575f5ffd5b8235611dc181611ae8565b91506020830135611dd181611d98565b809150509250929050565b5f5f5f5f60808587031215611def575f5ffd5b84359350602085013567ffffffffffffffff811115611e0c575f5ffd5b611e1887828801611b8e565b935050604085013567ffffffffffffffff811115611e34575f5ffd5b611e4087828801611c01565b949793965093946060013593505050565b5f5f5f5f60808587031215611e64575f5ffd5b8435611e6f81611ae8565b93506020850135611e7f81611ae8565b925060408501359150606085013567ffffffffffffffff811115611ea1575f5ffd5b8501601f81018713611eb1575f5ffd5b803567ffffffffffffffff811115611ecb57611ecb611b26565b611ede601f8201601f1916602001611b3a565b818152886020838501011115611ef2575f5ffd5b816020840160208301375f6020838301015280935050505092959194509250565b5f5f60408385031215611f24575f5ffd5b8235611f2f81611ae8565b91506020830135611dd181611ae8565b600181811c90821680611f5357607f821691505b602082108103611f7157634e487b7160e01b5f52602260045260245ffd5b50919050565b634e487b7160e01b5f52601160045260245ffd5b818103818111156104a4576104a4611f77565b634e487b7160e01b5f52603260045260245ffd5b5f81518060208401855e5f93019283525090919050565b5f611fd48286611fb2565b60609490941b6bffffffffffffffffffffffff19168452505060e81b6001600160e81b0319166014820152601701919050565b5f6120128285611fb2565b60609390931b6bffffffffffffffffffffffff191683525050601401919050565b604081525f6120456040830185611a91565b90508260208301529392505050565b5f60208284031215612064575f5ffd5b5051919050565b5f5f5f5f6080858703121561207e575f5ffd5b845161208981611ae8565b602086015190945067ffffffffffffffff811681146120a6575f5ffd5b60408601519093506120b781611ae8565b6060959095015193969295505050565b5f602082840312156120d7575f5ffd5b81516107a081611ae8565b80820281158282048414176104a4576104a4611f77565b5f8261211357634e487b7160e01b5f52601260045260245ffd5b500490565b5f60208284031215612128575f5ffd5b81516107a081611d98565b5f611a566121418386611fb2565b84611fb2565b808201808211156104a4576104a4611f77565b602081525f825160a0602084015261217560c0840182611a91565b905060018060a01b0360208501511660408401526040840151606084015260608401516080840152608084015160a08401528091505092915050565b6001600160a01b03858116825284166020820152604081018390526080606082018190525f9061159890830184611a91565b5f602082840312156121f3575f5ffd5b81516107a081611a5e56fea2646970667358221220b2e92ec0b646be1d5dcea3e729bcba3b1f6cea8f2ebd237697de13c8d95026f464736f6c634300081c0033",
			"opcodes": "PUSH2 0x120 PUSH1 0x40 MSTORE PUSH3 0x186A0 PUSH2 0x100 MSTORE PUSH8 0xDE0B6B3A7640000 PUSH1 0x8 SSTORE CALLVALUE DUP1 ISZERO PUSH2 0x24 JUMPI PUSH0 PUSH0 REVERT JUMPDEST POP PUSH1 0x40 MLOAD PUSH2 0x25F9 CODESIZE SUB DUP1 PUSH2 0x25F9 DUP4 CODECOPY DUP2 ADD PUSH1 0x40 DUP2 SWAP1 MSTORE PUSH2 0x43 SWAP2 PUSH2 0x138 JUMP JUMPDEST DUP2 DUP2 PUSH0 PUSH2 0x50 DUP4 DUP3 PUSH2 0x26C JUMP JUMPDEST POP PUSH1 0x1 PUSH2 0x5D DUP3 DUP3 PUSH2 0x26C JUMP JUMPDEST POP POP POP PUSH1 0x1 PUSH1 0x1 PUSH1 0xA0 SHL SUB SWAP6 DUP7 AND PUSH1 0x80 MSTORE POP POP SWAP2 DUP4 AND PUSH1 0xA0 MSTORE DUP3 AND PUSH1 0xC0 MSTORE AND PUSH1 0xE0 MSTORE PUSH2 0x326 JUMP JUMPDEST PUSH1 0x1 PUSH1 0x1 PUSH1 0xA0 SHL SUB DUP2 AND DUP2 EQ PUSH2 0x98 JUMPI PUSH0 PUSH0 REVERT JUMPDEST POP JUMP JUMPDEST PUSH4 0x4E487B71 PUSH1 0xE0 SHL PUSH0 MSTORE PUSH1 0x41 PUSH1 0x4 MSTORE PUSH1 0x24 PUSH0 REVERT JUMPDEST PUSH0 DUP3 PUSH1 0x1F DUP4 ADD SLT PUSH2 0xBE JUMPI PUSH0 PUSH0 REVERT JUMPDEST DUP2 MLOAD PUSH1 0x1 PUSH1 0x1 PUSH1 0x40 SHL SUB DUP2 GT ISZERO PUSH2 0xD7 JUMPI PUSH2 0xD7 PUSH2 0x9B JUMP JUMPDEST PUSH1 0x40 MLOAD PUSH1 0x1F DUP3 ADD PUSH1 0x1F NOT SWAP1 DUP2 AND PUSH1 0x3F ADD AND DUP2 ADD PUSH1 0x1 PUSH1 0x1 PUSH1 0x40 SHL SUB DUP2 GT DUP3 DUP3 LT OR ISZERO PUSH2 0x105 JUMPI PUSH2 0x105 PUSH2 0x9B JUMP JUMPDEST PUSH1 0x40 MSTORE DUP2 DUP2 MSTORE DUP4 DUP3 ADD PUSH1 0x20 ADD DUP6 LT ISZERO PUSH2 0x11C JUMPI PUSH0 PUSH0 REVERT JUMPDEST DUP2 PUSH1 0x20 DUP6 ADD PUSH1 0x20 DUP4 ADD MCOPY PUSH0 SWAP2 DUP2 ADD PUSH1 0x20 ADD SWAP2 SWAP1 SWAP2 MSTORE SWAP4 SWAP3 POP POP POP JUMP JUMPDEST PUSH0 PUSH0 PUSH0 PUSH0 PUSH0 PUSH0 PUSH1 0xC0 DUP8 DUP10 SUB SLT ISZERO PUSH2 0x14D JUMPI PUSH0 PUSH0 REVERT JUMPDEST DUP7 MLOAD PUSH2 0x158 DUP2 PUSH2 0x84 JUMP JUMPDEST PUSH1 0x20 DUP9 ADD MLOAD SWAP1 SWAP7 POP PUSH2 0x169 DUP2 PUSH2 0x84 JUMP JUMPDEST PUSH1 0x40 DUP9 ADD MLOAD SWAP1 SWAP6 POP PUSH2 0x17A DUP2 PUSH2 0x84 JUMP JUMPDEST PUSH1 0x60 DUP9 ADD MLOAD SWAP1 SWAP5 POP PUSH2 0x18B DUP2 PUSH2 0x84 JUMP JUMPDEST PUSH1 0x80 DUP9 ADD MLOAD SWAP1 SWAP4 POP PUSH1 0x1 PUSH1 0x1 PUSH1 0x40 SHL SUB DUP2 GT ISZERO PUSH2 0x1A6 JUMPI PUSH0 PUSH0 REVERT JUMPDEST PUSH2 0x1B2 DUP10 DUP3 DUP11 ADD PUSH2 0xAF JUMP JUMPDEST PUSH1 0xA0 DUP10 ADD MLOAD SWAP1 SWAP4 POP SWAP1 POP PUSH1 0x1 PUSH1 0x1 PUSH1 0x40 SHL SUB DUP2 GT ISZERO PUSH2 0x1CF JUMPI PUSH0 PUSH0 REVERT JUMPDEST PUSH2 0x1DB DUP10 DUP3 DUP11 ADD PUSH2 0xAF JUMP JUMPDEST SWAP2 POP POP SWAP3 SWAP6 POP SWAP3 SWAP6 POP SWAP3 SWAP6 JUMP JUMPDEST PUSH1 0x1 DUP2 DUP2 SHR SWAP1 DUP3 AND DUP1 PUSH2 0x1FC JUMPI PUSH1 0x7F DUP3 AND SWAP2 POP JUMPDEST PUSH1 0x20 DUP3 LT DUP2 SUB PUSH2 0x21A JUMPI PUSH4 0x4E487B71 PUSH1 0xE0 SHL PUSH0 MSTORE PUSH1 0x22 PUSH1 0x4 MSTORE PUSH1 0x24 PUSH0 REVERT JUMPDEST POP SWAP2 SWAP1 POP JUMP JUMPDEST PUSH1 0x1F DUP3 GT ISZERO PUSH2 0x267 JUMPI DUP1 PUSH0 MSTORE PUSH1 0x20 PUSH0 KECCAK256 PUSH1 0x1F DUP5 ADD PUSH1 0x5 SHR DUP2 ADD PUSH1 0x20 DUP6 LT ISZERO PUSH2 0x245 JUMPI POP DUP1 JUMPDEST PUSH1 0x1F DUP5 ADD PUSH1 0x5 SHR DUP3 ADD SWAP2 POP JUMPDEST DUP2 DUP2 LT ISZERO PUSH2 0x264 JUMPI PUSH0 DUP2 SSTORE PUSH1 0x1 ADD PUSH2 0x251 JUMP JUMPDEST POP POP JUMPDEST POP POP POP JUMP JUMPDEST DUP2 MLOAD PUSH1 0x1 PUSH1 0x1 PUSH1 0x40 SHL SUB DUP2 GT ISZERO PUSH2 0x285 JUMPI PUSH2 0x285 PUSH2 0x9B JUMP JUMPDEST PUSH2 0x299 DUP2 PUSH2 0x293 DUP5 SLOAD PUSH2 0x1E8 JUMP JUMPDEST DUP5 PUSH2 0x220 JUMP JUMPDEST PUSH1 0x20 PUSH1 0x1F DUP3 GT PUSH1 0x1 DUP2 EQ PUSH2 0x2CB JUMPI PUSH0 DUP4 ISZERO PUSH2 0x2B4 JUMPI POP DUP5 DUP3 ADD MLOAD JUMPDEST PUSH0 NOT PUSH1 0x3 DUP6 SWAP1 SHL SHR NOT AND PUSH1 0x1 DUP5 SWAP1 SHL OR DUP5 SSTORE PUSH2 0x264 JUMP JUMPDEST PUSH0 DUP5 DUP2 MSTORE PUSH1 0x20 DUP2 KECCAK256 PUSH1 0x1F NOT DUP6 AND SWAP2 JUMPDEST DUP3 DUP2 LT ISZERO PUSH2 0x2FA JUMPI DUP8 DUP6 ADD MLOAD DUP3 SSTORE PUSH1 0x20 SWAP5 DUP6 ADD SWAP5 PUSH1 0x1 SWAP1 SWAP3 ADD SWAP2 ADD PUSH2 0x2DA JUMP JUMPDEST POP DUP5 DUP3 LT ISZERO PUSH2 0x317 JUMPI DUP7 DUP5 ADD MLOAD PUSH0 NOT PUSH1 0x3 DUP8 SWAP1 SHL PUSH1 0xF8 AND SHR NOT AND DUP2 SSTORE JUMPDEST POP POP POP POP PUSH1 0x1 SWAP1 DUP2 SHL ADD SWAP1 SSTORE POP JUMP JUMPDEST PUSH1 0x80 MLOAD PUSH1 0xA0 MLOAD PUSH1 0xC0 MLOAD PUSH1 0xE0 MLOAD PUSH2 0x100 MLOAD PUSH2 0x2234 PUSH2 0x3C5 PUSH0 CODECOPY PUSH0 DUP2 DUP2 PUSH2 0x452 ADD MSTORE PUSH2 0xE9D ADD MSTORE PUSH0 DUP2 DUP2 PUSH2 0x288 ADD MSTORE DUP2 DUP2 PUSH2 0x7AE ADD MSTORE DUP2 DUP2 PUSH2 0x8D6 ADD MSTORE PUSH2 0xCF9 ADD MSTORE PUSH0 DUP2 DUP2 PUSH2 0x3F1 ADD MSTORE DUP2 DUP2 PUSH2 0x978 ADD MSTORE DUP2 DUP2 PUSH2 0xB71 ADD MSTORE DUP2 DUP2 PUSH2 0xBF7 ADD MSTORE DUP2 DUP2 PUSH2 0xC5D ADD MSTORE DUP2 DUP2 PUSH2 0xE6E ADD MSTORE DUP2 DUP2 PUSH2 0xF50 ADD MSTORE PUSH2 0x1194 ADD MSTORE PUSH0 DUP2 DUP2 PUSH2 0x418 ADD MSTORE PUSH2 0x719 ADD MSTORE PUSH0 DUP2 DUP2 PUSH2 0x3CA ADD MSTORE DUP2 DUP2 PUSH2 0xD7E ADD MSTORE PUSH2 0x150E ADD MSTORE PUSH2 0x2234 PUSH0 RETURN INVALID PUSH1 0x80 PUSH1 0x40 MSTORE CALLVALUE DUP1 ISZERO PUSH2 0xF JUMPI PUSH0 PUSH0 REVERT JUMPDEST POP PUSH1 0x4 CALLDATASIZE LT PUSH2 0x1BB JUMPI PUSH0 CALLDATALOAD PUSH1 0xE0 SHR DUP1 PUSH4 0x92CA60C1 GT PUSH2 0xF3 JUMPI DUP1 PUSH4 0xC31C9C07 GT PUSH2 0x93 JUMPI DUP1 PUSH4 0xC87B56DD GT PUSH2 0x6E JUMPI DUP1 PUSH4 0xC87B56DD EQ PUSH2 0x43A JUMPI DUP1 PUSH4 0xDDCA3F43 EQ PUSH2 0x44D JUMPI DUP1 PUSH4 0xE985E9C5 EQ PUSH2 0x474 JUMPI DUP1 PUSH4 0xFDB05E85 EQ PUSH2 0x487 JUMPI PUSH0 PUSH0 REVERT JUMPDEST DUP1 PUSH4 0xC31C9C07 EQ PUSH2 0x3C5 JUMPI DUP1 PUSH4 0xC4D4803A EQ PUSH2 0x3EC JUMPI DUP1 PUSH4 0xC6BBD5A7 EQ PUSH2 0x413 JUMPI PUSH0 PUSH0 REVERT JUMPDEST DUP1 PUSH4 0xA22CB465 GT PUSH2 0xCE JUMPI DUP1 PUSH4 0xA22CB465 EQ PUSH2 0x383 JUMPI DUP1 PUSH4 0xA7433A11 EQ PUSH2 0x396 JUMPI DUP1 PUSH4 0xA7C78437 EQ PUSH2 0x3A9 JUMPI DUP1 PUSH4 0xB88D4FDE EQ PUSH2 0x3B2 JUMPI PUSH0 PUSH0 REVERT JUMPDEST DUP1 PUSH4 0x92CA60C1 EQ PUSH2 0x337 JUMPI DUP1 PUSH4 0x95D89B41 EQ PUSH2 0x372 JUMPI DUP1 PUSH4 0x968ED600 EQ PUSH2 0x37A JUMPI PUSH0 PUSH0 REVERT JUMPDEST DUP1 PUSH4 0x365A86FC GT PUSH2 0x15E JUMPI DUP1 PUSH4 0x6352211E GT PUSH2 0x139 JUMPI DUP1 PUSH4 0x6352211E EQ PUSH2 0x2F5 JUMPI DUP1 PUSH4 0x70A08231 EQ PUSH2 0x308 JUMPI DUP1 PUSH4 0x780900DC EQ PUSH2 0x31B JUMPI DUP1 PUSH4 0x78A5171A EQ PUSH2 0x32E JUMPI PUSH0 PUSH0 REVERT JUMPDEST DUP1 PUSH4 0x365A86FC EQ PUSH2 0x283 JUMPI DUP1 PUSH4 0x3DCC86FA EQ PUSH2 0x2AA JUMPI DUP1 PUSH4 0x42842E0E EQ PUSH2 0x2E2 JUMPI PUSH0 PUSH0 REVERT JUMPDEST DUP1 PUSH4 0x95EA7B3 GT PUSH2 0x199 JUMPI DUP1 PUSH4 0x95EA7B3 EQ PUSH2 0x227 JUMPI DUP1 PUSH4 0x21866205 EQ PUSH2 0x23C JUMPI DUP1 PUSH4 0x23B872DD EQ PUSH2 0x24F JUMPI DUP1 PUSH4 0x303026D0 EQ PUSH2 0x262 JUMPI PUSH0 PUSH0 REVERT JUMPDEST DUP1 PUSH4 0x1FFC9A7 EQ PUSH2 0x1BF JUMPI DUP1 PUSH4 0x6FDDE03 EQ PUSH2 0x1E7 JUMPI DUP1 PUSH4 0x81812FC EQ PUSH2 0x1FC JUMPI JUMPDEST PUSH0 PUSH0 REVERT JUMPDEST PUSH2 0x1D2 PUSH2 0x1CD CALLDATASIZE PUSH1 0x4 PUSH2 0x1A76 JUMP JUMPDEST PUSH2 0x49A JUMP JUMPDEST PUSH1 0x40 MLOAD SWAP1 ISZERO ISZERO DUP2 MSTORE PUSH1 0x20 ADD JUMPDEST PUSH1 0x40 MLOAD DUP1 SWAP2 SUB SWAP1 RETURN JUMPDEST PUSH2 0x1EF PUSH2 0x4AA JUMP JUMPDEST PUSH1 0x40 MLOAD PUSH2 0x1DE SWAP2 SWAP1 PUSH2 0x1ABF JUMP JUMPDEST PUSH2 0x20F PUSH2 0x20A CALLDATASIZE PUSH1 0x4 PUSH2 0x1AD1 JUMP JUMPDEST PUSH2 0x539 JUMP JUMPDEST PUSH1 0x40 MLOAD PUSH1 0x1 PUSH1 0x1 PUSH1 0xA0 SHL SUB SWAP1 SWAP2 AND DUP2 MSTORE PUSH1 0x20 ADD PUSH2 0x1DE JUMP JUMPDEST PUSH2 0x23A PUSH2 0x235 CALLDATASIZE PUSH1 0x4 PUSH2 0x1AFC JUMP JUMPDEST PUSH2 0x560 JUMP JUMPDEST STOP JUMPDEST PUSH2 0x1EF PUSH2 0x24A CALLDATASIZE PUSH1 0x4 PUSH2 0x1C6C JUMP JUMPDEST PUSH2 0x56F JUMP JUMPDEST PUSH2 0x23A PUSH2 0x25D CALLDATASIZE PUSH1 0x4 PUSH2 0x1CD1 JUMP JUMPDEST PUSH2 0x665 JUMP JUMPDEST PUSH2 0x275 PUSH2 0x270 CALLDATASIZE PUSH1 0x4 PUSH2 0x1D0F JUMP JUMPDEST PUSH2 0x6F3 JUMP JUMPDEST PUSH1 0x40 MLOAD SWAP1 DUP2 MSTORE PUSH1 0x20 ADD PUSH2 0x1DE JUMP JUMPDEST PUSH2 0x20F PUSH32 0x0 DUP2 JUMP JUMPDEST PUSH2 0x2BD PUSH2 0x2B8 CALLDATASIZE PUSH1 0x4 PUSH2 0x1AD1 JUMP JUMPDEST PUSH2 0x7A7 JUMP JUMPDEST PUSH1 0x40 DUP1 MLOAD PUSH1 0x1 PUSH1 0x1 PUSH1 0xA0 SHL SUB SWAP1 SWAP5 AND DUP5 MSTORE PUSH1 0x20 DUP5 ADD SWAP3 SWAP1 SWAP3 MSTORE SWAP1 DUP3 ADD MSTORE PUSH1 0x60 ADD PUSH2 0x1DE JUMP JUMPDEST PUSH2 0x23A PUSH2 0x2F0 CALLDATASIZE PUSH1 0x4 PUSH2 0x1CD1 JUMP JUMPDEST PUSH2 0xA4D JUMP JUMPDEST PUSH2 0x20F PUSH2 0x303 CALLDATASIZE PUSH1 0x4 PUSH2 0x1AD1 JUMP JUMPDEST PUSH2 0xA6C JUMP JUMPDEST PUSH2 0x275 PUSH2 0x316 CALLDATASIZE PUSH1 0x4 PUSH2 0x1D7D JUMP JUMPDEST PUSH2 0xA76 JUMP JUMPDEST PUSH2 0x275 PUSH2 0x329 CALLDATASIZE PUSH1 0x4 PUSH2 0x1AD1 JUMP JUMPDEST PUSH2 0xABB JUMP JUMPDEST PUSH2 0x275 PUSH1 0x8 SLOAD DUP2 JUMP JUMPDEST PUSH2 0x35D PUSH2 0x345 CALLDATASIZE PUSH1 0x4 PUSH2 0x1AD1 JUMP JUMPDEST PUSH1 0x9 PUSH1 0x20 MSTORE PUSH0 SWAP1 DUP2 MSTORE PUSH1 0x40 SWAP1 KECCAK256 DUP1 SLOAD PUSH1 0x1 SWAP1 SWAP2 ADD SLOAD DUP3 JUMP JUMPDEST PUSH1 0x40 DUP1 MLOAD SWAP3 DUP4 MSTORE PUSH1 0x20 DUP4 ADD SWAP2 SWAP1 SWAP2 MSTORE ADD PUSH2 0x1DE JUMP JUMPDEST PUSH2 0x1EF PUSH2 0xAC6 JUMP JUMPDEST PUSH2 0x275 PUSH1 0x7 SLOAD DUP2 JUMP JUMPDEST PUSH2 0x23A PUSH2 0x391 CALLDATASIZE PUSH1 0x4 PUSH2 0x1DA5 JUMP JUMPDEST PUSH2 0xAD5 JUMP JUMPDEST PUSH2 0x23A PUSH2 0x3A4 CALLDATASIZE PUSH1 0x4 PUSH2 0x1DDC JUMP JUMPDEST PUSH2 0xAE0 JUMP JUMPDEST PUSH2 0x275 PUSH1 0x6 SLOAD DUP2 JUMP JUMPDEST PUSH2 0x23A PUSH2 0x3C0 CALLDATASIZE PUSH1 0x4 PUSH2 0x1E51 JUMP JUMPDEST PUSH2 0x1069 JUMP JUMPDEST PUSH2 0x20F PUSH32 0x0 DUP2 JUMP JUMPDEST PUSH2 0x20F PUSH32 0x0 DUP2 JUMP JUMPDEST PUSH2 0x20F PUSH32 0x0 DUP2 JUMP JUMPDEST PUSH2 0x1EF PUSH2 0x448 CALLDATASIZE PUSH1 0x4 PUSH2 0x1AD1 JUMP JUMPDEST PUSH2 0x1081 JUMP JUMPDEST PUSH2 0x275 PUSH32 0x0 DUP2 JUMP JUMPDEST PUSH2 0x1D2 PUSH2 0x482 CALLDATASIZE PUSH1 0x4 PUSH2 0x1F13 JUMP JUMPDEST PUSH2 0x10F1 JUMP JUMPDEST PUSH2 0x275 PUSH2 0x495 CALLDATASIZE PUSH1 0x4 PUSH2 0x1AFC JUMP JUMPDEST PUSH2 0x111E JUMP JUMPDEST PUSH0 PUSH2 0x4A4 DUP3 PUSH2 0x129C JUMP JUMPDEST SWAP3 SWAP2 POP POP JUMP JUMPDEST PUSH1 0x60 PUSH0 DUP1 SLOAD PUSH2 0x4B8 SWAP1 PUSH2 0x1F3F JUMP JUMPDEST DUP1 PUSH1 0x1F ADD PUSH1 0x20 DUP1 SWAP2 DIV MUL PUSH1 0x20 ADD PUSH1 0x40 MLOAD SWAP1 DUP2 ADD PUSH1 0x40 MSTORE DUP1 SWAP3 SWAP2 SWAP1 DUP2 DUP2 MSTORE PUSH1 0x20 ADD DUP3 DUP1 SLOAD PUSH2 0x4E4 SWAP1 PUSH2 0x1F3F JUMP JUMPDEST DUP1 ISZERO PUSH2 0x52F JUMPI DUP1 PUSH1 0x1F LT PUSH2 0x506 JUMPI PUSH2 0x100 DUP1 DUP4 SLOAD DIV MUL DUP4 MSTORE SWAP2 PUSH1 0x20 ADD SWAP2 PUSH2 0x52F JUMP JUMPDEST DUP3 ADD SWAP2 SWAP1 PUSH0 MSTORE PUSH1 0x20 PUSH0 KECCAK256 SWAP1 JUMPDEST DUP2 SLOAD DUP2 MSTORE SWAP1 PUSH1 0x1 ADD SWAP1 PUSH1 0x20 ADD DUP1 DUP4 GT PUSH2 0x512 JUMPI DUP3 SWAP1 SUB PUSH1 0x1F AND DUP3 ADD SWAP2 JUMPDEST POP POP POP POP POP SWAP1 POP SWAP1 JUMP JUMPDEST PUSH0 PUSH2 0x543 DUP3 PUSH2 0x12EB JUMP JUMPDEST POP PUSH0 DUP3 DUP2 MSTORE PUSH1 0x4 PUSH1 0x20 MSTORE PUSH1 0x40 SWAP1 KECCAK256 SLOAD PUSH1 0x1 PUSH1 0x1 PUSH1 0xA0 SHL SUB AND PUSH2 0x4A4 JUMP JUMPDEST PUSH2 0x56B DUP3 DUP3 CALLER PUSH2 0x1323 JUMP JUMPDEST POP POP JUMP JUMPDEST PUSH1 0x60 PUSH1 0x2 DUP4 MLOAD LT ISZERO DUP1 ISZERO PUSH2 0x590 JUMPI POP DUP2 MLOAD PUSH1 0x1 DUP5 MLOAD PUSH2 0x58E SWAP2 SWAP1 PUSH2 0x1F8B JUMP JUMPDEST EQ JUMPDEST PUSH2 0x598 JUMPI PUSH0 PUSH0 REVERT JUMPDEST PUSH1 0x40 DUP1 MLOAD PUSH0 DUP1 DUP3 MSTORE PUSH1 0x20 DUP3 ADD SWAP1 SWAP3 MSTORE SWAP1 JUMPDEST DUP4 MLOAD DUP2 LT ISZERO PUSH2 0x613 JUMPI DUP2 DUP6 DUP3 DUP2 MLOAD DUP2 LT PUSH2 0x5C5 JUMPI PUSH2 0x5C5 PUSH2 0x1F9E JUMP JUMPDEST PUSH1 0x20 MUL PUSH1 0x20 ADD ADD MLOAD DUP6 DUP4 DUP2 MLOAD DUP2 LT PUSH2 0x5DF JUMPI PUSH2 0x5DF PUSH2 0x1F9E JUMP JUMPDEST PUSH1 0x20 MUL PUSH1 0x20 ADD ADD MLOAD PUSH1 0x40 MLOAD PUSH1 0x20 ADD PUSH2 0x5F9 SWAP4 SWAP3 SWAP2 SWAP1 PUSH2 0x1FC9 JUMP JUMPDEST PUSH1 0x40 DUP1 MLOAD PUSH1 0x1F NOT DUP2 DUP5 SUB ADD DUP2 MSTORE SWAP2 SWAP1 MSTORE SWAP2 POP PUSH1 0x1 ADD PUSH2 0x5A9 JUMP JUMPDEST POP DUP1 DUP5 PUSH1 0x1 DUP7 MLOAD PUSH2 0x624 SWAP2 SWAP1 PUSH2 0x1F8B JUMP JUMPDEST DUP2 MLOAD DUP2 LT PUSH2 0x634 JUMPI PUSH2 0x634 PUSH2 0x1F9E JUMP JUMPDEST PUSH1 0x20 MUL PUSH1 0x20 ADD ADD MLOAD PUSH1 0x40 MLOAD PUSH1 0x20 ADD PUSH2 0x64D SWAP3 SWAP2 SWAP1 PUSH2 0x2007 JUMP JUMPDEST PUSH1 0x40 DUP1 MLOAD DUP1 DUP4 SUB PUSH1 0x1F NOT ADD DUP2 MSTORE SWAP2 SWAP1 MSTORE SWAP5 SWAP4 POP POP POP POP JUMP JUMPDEST PUSH1 0x1 PUSH1 0x1 PUSH1 0xA0 SHL SUB DUP3 AND PUSH2 0x693 JUMPI PUSH1 0x40 MLOAD PUSH4 0x32505749 PUSH1 0xE1 SHL DUP2 MSTORE PUSH0 PUSH1 0x4 DUP3 ADD MSTORE PUSH1 0x24 ADD JUMPDEST PUSH1 0x40 MLOAD DUP1 SWAP2 SUB SWAP1 REVERT JUMPDEST PUSH0 PUSH2 0x69F DUP4 DUP4 CALLER PUSH2 0x1330 JUMP JUMPDEST SWAP1 POP DUP4 PUSH1 0x1 PUSH1 0x1 PUSH1 0xA0 SHL SUB AND DUP2 PUSH1 0x1 PUSH1 0x1 PUSH1 0xA0 SHL SUB AND EQ PUSH2 0x6ED JUMPI PUSH1 0x40 MLOAD PUSH4 0x64283D7B PUSH1 0xE0 SHL DUP2 MSTORE PUSH1 0x1 PUSH1 0x1 PUSH1 0xA0 SHL SUB DUP1 DUP7 AND PUSH1 0x4 DUP4 ADD MSTORE PUSH1 0x24 DUP3 ADD DUP5 SWAP1 MSTORE DUP3 AND PUSH1 0x44 DUP3 ADD MSTORE PUSH1 0x64 ADD PUSH2 0x68A JUMP JUMPDEST POP POP POP POP JUMP JUMPDEST PUSH0 PUSH0 PUSH2 0x6FF DUP6 DUP6 PUSH2 0x56F JUMP JUMPDEST PUSH1 0x40 MLOAD PUSH4 0xCDCA1753 PUSH1 0xE0 SHL DUP2 MSTORE SWAP1 SWAP2 POP PUSH1 0x1 PUSH1 0x1 PUSH1 0xA0 SHL SUB PUSH32 0x0 AND SWAP1 PUSH4 0xCDCA1753 SWAP1 PUSH2 0x750 SWAP1 DUP5 SWAP1 DUP8 SWAP1 PUSH1 0x4 ADD PUSH2 0x2033 JUMP JUMPDEST PUSH1 0x20 PUSH1 0x40 MLOAD DUP1 DUP4 SUB DUP2 PUSH0 DUP8 GAS CALL SWAP3 POP POP POP DUP1 ISZERO PUSH2 0x78A JUMPI POP PUSH1 0x40 DUP1 MLOAD PUSH1 0x1F RETURNDATASIZE SWAP1 DUP2 ADD PUSH1 0x1F NOT AND DUP3 ADD SWAP1 SWAP3 MSTORE PUSH2 0x787 SWAP2 DUP2 ADD SWAP1 PUSH2 0x2054 JUMP JUMPDEST PUSH1 0x1 JUMPDEST PUSH2 0x797 JUMPI PUSH0 SWAP2 POP POP PUSH2 0x7A0 JUMP JUMPDEST SWAP2 POP PUSH2 0x7A0 SWAP1 POP JUMP JUMPDEST SWAP4 SWAP3 POP POP POP JUMP JUMPDEST PUSH0 PUSH0 PUSH0 PUSH0 PUSH0 PUSH32 0x0 PUSH1 0x1 PUSH1 0x1 PUSH1 0xA0 SHL SUB AND PUSH4 0x8F1D3776 DUP8 PUSH1 0x40 MLOAD DUP3 PUSH4 0xFFFFFFFF AND PUSH1 0xE0 SHL DUP2 MSTORE PUSH1 0x4 ADD PUSH2 0x7FA SWAP2 DUP2 MSTORE PUSH1 0x20 ADD SWAP1 JUMP JUMPDEST PUSH1 0x80 PUSH1 0x40 MLOAD DUP1 DUP4 SUB DUP2 DUP7 GAS STATICCALL ISZERO DUP1 ISZERO PUSH2 0x815 JUMPI RETURNDATASIZE PUSH0 PUSH0 RETURNDATACOPY RETURNDATASIZE PUSH0 REVERT JUMPDEST POP POP POP POP PUSH1 0x40 MLOAD RETURNDATASIZE PUSH1 0x1F NOT PUSH1 0x1F DUP3 ADD AND DUP3 ADD DUP1 PUSH1 0x40 MSTORE POP DUP2 ADD SWAP1 PUSH2 0x839 SWAP2 SWAP1 PUSH2 0x206B JUMP JUMPDEST SWAP4 POP SWAP4 POP POP POP PUSH0 DUP3 PUSH1 0x1 PUSH1 0x1 PUSH1 0xA0 SHL SUB AND PUSH4 0xD8DFEB45 PUSH1 0x40 MLOAD DUP2 PUSH4 0xFFFFFFFF AND PUSH1 0xE0 SHL DUP2 MSTORE PUSH1 0x4 ADD PUSH1 0x20 PUSH1 0x40 MLOAD DUP1 DUP4 SUB DUP2 DUP7 GAS STATICCALL ISZERO DUP1 ISZERO PUSH2 0x87C JUMPI RETURNDATASIZE PUSH0 PUSH0 RETURNDATACOPY RETURNDATASIZE PUSH0 REVERT JUMPDEST POP POP POP POP PUSH1 0x40 MLOAD RETURNDATASIZE PUSH1 0x1F NOT PUSH1 0x1F DUP3 ADD AND DUP3 ADD DUP1 PUSH1 0x40 MSTORE POP DUP2 ADD SWAP1 PUSH2 0x8A0 SWAP2 SWAP1 PUSH2 0x20C7 JUMP JUMPDEST SWAP1 POP DUP2 PUSH0 SUB PUSH2 0x8B9 JUMPI SWAP5 POP PUSH0 SWAP4 POP DUP4 SWAP3 POP PUSH2 0xA46 SWAP2 POP POP JUMP JUMPDEST PUSH1 0x40 MLOAD PUSH4 0x73650EF9 PUSH1 0xE1 SHL DUP2 MSTORE PUSH4 0xFFFFFFFF DUP9 AND PUSH1 0x4 DUP3 ADD MSTORE PUSH0 SWAP1 PUSH32 0x0 PUSH1 0x1 PUSH1 0x1 PUSH1 0xA0 SHL SUB AND SWAP1 PUSH4 0xE6CA1DF2 SWAP1 PUSH1 0x24 ADD PUSH1 0x20 PUSH1 0x40 MLOAD DUP1 DUP4 SUB DUP2 DUP7 GAS STATICCALL ISZERO DUP1 ISZERO PUSH2 0x923 JUMPI RETURNDATASIZE PUSH0 PUSH0 RETURNDATACOPY RETURNDATASIZE PUSH0 REVERT JUMPDEST POP POP POP POP PUSH1 0x40 MLOAD RETURNDATASIZE PUSH1 0x1F NOT PUSH1 0x1F DUP3 ADD AND DUP3 ADD DUP1 PUSH1 0x40 MSTORE POP DUP2 ADD SWAP1 PUSH2 0x947 SWAP2 SWAP1 PUSH2 0x2054 JUMP JUMPDEST SWAP1 POP DUP1 PUSH0 SUB PUSH2 0x961 JUMPI POP SWAP5 POP PUSH0 SWAP4 POP DUP4 SWAP3 POP PUSH2 0xA46 SWAP2 POP POP JUMP JUMPDEST PUSH1 0x40 MLOAD PUSH4 0x70A08231 PUSH1 0xE0 SHL DUP2 MSTORE ADDRESS PUSH1 0x4 DUP3 ADD MSTORE PUSH0 SWAP1 PUSH32 0x0 PUSH1 0x1 PUSH1 0x1 PUSH1 0xA0 SHL SUB AND SWAP1 PUSH4 0x70A08231 SWAP1 PUSH1 0x24 ADD PUSH1 0x20 PUSH1 0x40 MLOAD DUP1 DUP4 SUB DUP2 DUP7 GAS STATICCALL ISZERO DUP1 ISZERO PUSH2 0x9C5 JUMPI RETURNDATASIZE PUSH0 PUSH0 RETURNDATACOPY RETURNDATASIZE PUSH0 REVERT JUMPDEST POP POP POP POP PUSH1 0x40 MLOAD RETURNDATASIZE PUSH1 0x1F NOT PUSH1 0x1F DUP3 ADD AND DUP3 ADD DUP1 PUSH1 0x40 MSTORE POP DUP2 ADD SWAP1 PUSH2 0x9E9 SWAP2 SWAP1 PUSH2 0x2054 JUMP JUMPDEST SWAP1 POP PUSH0 DUP3 PUSH2 0x9FF DUP4 PUSH8 0xDE0B6B3A7640000 PUSH2 0x20E2 JUMP JUMPDEST PUSH2 0xA09 SWAP2 SWAP1 PUSH2 0x20F9 JUMP JUMPDEST SWAP1 POP PUSH0 PUSH2 0xA16 DUP7 DUP4 PUSH2 0x1422 JUMP JUMPDEST SWAP1 POP PUSH0 PUSH8 0xDE0B6B3A7640000 PUSH2 0xA2C DUP7 DUP5 PUSH2 0x20E2 JUMP JUMPDEST PUSH2 0xA36 SWAP2 SWAP1 PUSH2 0x20F9 JUMP JUMPDEST SWAP6 SWAP11 POP SWAP1 SWAP9 POP SWAP4 SWAP7 POP POP POP POP POP POP POP JUMPDEST SWAP2 SWAP4 SWAP1 SWAP3 POP JUMP JUMPDEST PUSH2 0xA67 DUP4 DUP4 DUP4 PUSH1 0x40 MLOAD DUP1 PUSH1 0x20 ADD PUSH1 0x40 MSTORE DUP1 PUSH0 DUP2 MSTORE POP PUSH2 0x1069 JUMP JUMPDEST POP POP POP JUMP JUMPDEST PUSH0 PUSH2 0x4A4 DUP3 PUSH2 0x12EB JUMP JUMPDEST PUSH0 PUSH1 0x1 PUSH1 0x1 PUSH1 0xA0 SHL SUB DUP3 AND PUSH2 0xAA0 JUMPI PUSH1 0x40 MLOAD PUSH4 0x22718AD9 PUSH1 0xE2 SHL DUP2 MSTORE PUSH0 PUSH1 0x4 DUP3 ADD MSTORE PUSH1 0x24 ADD PUSH2 0x68A JUMP JUMPDEST POP PUSH1 0x1 PUSH1 0x1 PUSH1 0xA0 SHL SUB AND PUSH0 SWAP1 DUP2 MSTORE PUSH1 0x3 PUSH1 0x20 MSTORE PUSH1 0x40 SWAP1 KECCAK256 SLOAD SWAP1 JUMP JUMPDEST PUSH0 PUSH2 0x4A4 CALLER DUP4 PUSH2 0x111E JUMP JUMPDEST PUSH1 0x60 PUSH1 0x1 DUP1 SLOAD PUSH2 0x4B8 SWAP1 PUSH2 0x1F3F JUMP JUMPDEST PUSH2 0x56B CALLER DUP4 DUP4 PUSH2 0x1431 JUMP JUMPDEST PUSH0 PUSH0 PUSH0 PUSH2 0xAEC DUP8 PUSH2 0x7A7 JUMP JUMPDEST SWAP3 POP SWAP3 POP SWAP3 POP DUP3 PUSH1 0x1 PUSH1 0x1 PUSH1 0xA0 SHL SUB AND DUP7 PUSH0 DUP2 MLOAD DUP2 LT PUSH2 0xB0E JUMPI PUSH2 0xB0E PUSH2 0x1F9E JUMP JUMPDEST PUSH1 0x20 MUL PUSH1 0x20 ADD ADD MLOAD PUSH1 0x1 PUSH1 0x1 PUSH1 0xA0 SHL SUB AND EQ PUSH2 0xB6F JUMPI DUP6 PUSH0 DUP2 MLOAD DUP2 LT PUSH2 0xB36 JUMPI PUSH2 0xB36 PUSH2 0x1F9E JUMP JUMPDEST PUSH1 0x20 MUL PUSH1 0x20 ADD ADD MLOAD DUP4 PUSH1 0x40 MLOAD PUSH4 0x16319093 PUSH1 0xE1 SHL DUP2 MSTORE PUSH1 0x4 ADD PUSH2 0x68A SWAP3 SWAP2 SWAP1 PUSH1 0x1 PUSH1 0x1 PUSH1 0xA0 SHL SUB SWAP3 DUP4 AND DUP2 MSTORE SWAP2 AND PUSH1 0x20 DUP3 ADD MSTORE PUSH1 0x40 ADD SWAP1 JUMP JUMPDEST PUSH32 0x0 PUSH1 0x1 PUSH1 0x1 PUSH1 0xA0 SHL SUB AND DUP7 PUSH1 0x1 DUP9 MLOAD PUSH2 0xBA8 SWAP2 SWAP1 PUSH2 0x1F8B JUMP JUMPDEST DUP2 MLOAD DUP2 LT PUSH2 0xBB8 JUMPI PUSH2 0xBB8 PUSH2 0x1F9E JUMP JUMPDEST PUSH1 0x20 MUL PUSH1 0x20 ADD ADD MLOAD PUSH1 0x1 PUSH1 0x1 PUSH1 0xA0 SHL SUB AND EQ PUSH2 0xC46 JUMPI DUP6 PUSH1 0x1 DUP8 MLOAD PUSH2 0xBDD SWAP2 SWAP1 PUSH2 0x1F8B JUMP JUMPDEST DUP2 MLOAD DUP2 LT PUSH2 0xBED JUMPI PUSH2 0xBED PUSH2 0x1F9E JUMP JUMPDEST PUSH1 0x20 MUL PUSH1 0x20 ADD ADD MLOAD PUSH32 0x0 PUSH1 0x40 MLOAD PUSH4 0xD064A3F7 PUSH1 0xE0 SHL DUP2 MSTORE PUSH1 0x4 ADD PUSH2 0x68A SWAP3 SWAP2 SWAP1 PUSH1 0x1 PUSH1 0x1 PUSH1 0xA0 SHL SUB SWAP3 DUP4 AND DUP2 MSTORE SWAP2 AND PUSH1 0x20 DUP3 ADD MSTORE PUSH1 0x40 ADD SWAP1 JUMP JUMPDEST PUSH1 0x40 MLOAD PUSH4 0x70A08231 PUSH1 0xE0 SHL DUP2 MSTORE ADDRESS PUSH1 0x4 DUP3 ADD MSTORE PUSH0 SWAP1 PUSH32 0x0 PUSH1 0x1 PUSH1 0x1 PUSH1 0xA0 SHL SUB AND SWAP1 PUSH4 0x70A08231 SWAP1 PUSH1 0x24 ADD PUSH1 0x20 PUSH1 0x40 MLOAD DUP1 DUP4 SUB DUP2 DUP7 GAS STATICCALL ISZERO DUP1 ISZERO PUSH2 0xCAA JUMPI RETURNDATASIZE PUSH0 PUSH0 RETURNDATACOPY RETURNDATASIZE PUSH0 REVERT JUMPDEST POP POP POP POP PUSH1 0x40 MLOAD RETURNDATASIZE PUSH1 0x1F NOT PUSH1 0x1F DUP3 ADD AND DUP3 ADD DUP1 PUSH1 0x40 MSTORE POP DUP2 ADD SWAP1 PUSH2 0xCCE SWAP2 SWAP1 PUSH2 0x2054 JUMP JUMPDEST PUSH1 0x40 MLOAD PUSH4 0x7EB81BB3 PUSH1 0xE0 SHL DUP2 MSTORE PUSH4 0xFFFFFFFF DUP11 AND PUSH1 0x4 DUP3 ADD MSTORE PUSH1 0x24 DUP2 ADD DUP6 SWAP1 MSTORE PUSH0 PUSH1 0x44 DUP3 ADD MSTORE SWAP1 SWAP2 POP PUSH32 0x0 PUSH1 0x1 PUSH1 0x1 PUSH1 0xA0 SHL SUB AND SWAP1 PUSH4 0x7EB81BB3 SWAP1 PUSH1 0x64 ADD PUSH0 PUSH1 0x40 MLOAD DUP1 DUP4 SUB DUP2 PUSH0 DUP8 DUP1 EXTCODESIZE ISZERO DUP1 ISZERO PUSH2 0xD42 JUMPI PUSH0 PUSH0 REVERT JUMPDEST POP GAS CALL ISZERO DUP1 ISZERO PUSH2 0xD54 JUMPI RETURNDATASIZE PUSH0 PUSH0 RETURNDATACOPY RETURNDATASIZE PUSH0 REVERT JUMPDEST POP POP PUSH1 0x40 MLOAD PUSH4 0x70A08231 PUSH1 0xE0 SHL DUP2 MSTORE ADDRESS PUSH1 0x4 DUP3 ADD MSTORE PUSH1 0x1 PUSH1 0x1 PUSH1 0xA0 SHL SUB DUP8 AND SWAP3 POP PUSH4 0x95EA7B3 SWAP2 POP PUSH32 0x0 SWAP1 DUP4 SWAP1 PUSH4 0x70A08231 SWAP1 PUSH1 0x24 ADD PUSH1 0x20 PUSH1 0x40 MLOAD DUP1 DUP4 SUB DUP2 DUP7 GAS STATICCALL ISZERO DUP1 ISZERO PUSH2 0xDC4 JUMPI RETURNDATASIZE PUSH0 PUSH0 RETURNDATACOPY RETURNDATASIZE PUSH0 REVERT JUMPDEST POP POP POP POP PUSH1 0x40 MLOAD RETURNDATASIZE PUSH1 0x1F NOT PUSH1 0x1F DUP3 ADD AND DUP3 ADD DUP1 PUSH1 0x40 MSTORE POP DUP2 ADD SWAP1 PUSH2 0xDE8 SWAP2 SWAP1 PUSH2 0x2054 JUMP JUMPDEST PUSH1 0x40 MLOAD PUSH1 0x1 PUSH1 0x1 PUSH1 0xE0 SHL SUB NOT PUSH1 0xE0 DUP6 SWAP1 SHL AND DUP2 MSTORE PUSH1 0x1 PUSH1 0x1 PUSH1 0xA0 SHL SUB SWAP1 SWAP3 AND PUSH1 0x4 DUP4 ADD MSTORE PUSH1 0x24 DUP3 ADD MSTORE PUSH1 0x44 ADD PUSH1 0x20 PUSH1 0x40 MLOAD DUP1 DUP4 SUB DUP2 PUSH0 DUP8 GAS CALL ISZERO DUP1 ISZERO PUSH2 0xE30 JUMPI RETURNDATASIZE PUSH0 PUSH0 RETURNDATACOPY RETURNDATASIZE PUSH0 REVERT JUMPDEST POP POP POP POP PUSH1 0x40 MLOAD RETURNDATASIZE PUSH1 0x1F NOT PUSH1 0x1F DUP3 ADD AND DUP3 ADD DUP1 PUSH1 0x40 MSTORE POP DUP2 ADD SWAP1 PUSH2 0xE54 SWAP2 SWAP1 PUSH2 0x2118 JUMP JUMPDEST POP PUSH0 PUSH2 0xE62 DUP9 DUP9 DUP9 DUP7 PUSH2 0x14CF JUMP JUMPDEST SWAP1 POP PUSH1 0x1 PUSH1 0x1 PUSH1 0xA0 SHL SUB PUSH32 0x0 AND PUSH4 0xA9059CBB CALLER PUSH3 0xF4240 PUSH2 0xEC2 PUSH32 0x0 DUP7 PUSH2 0x20E2 JUMP JUMPDEST PUSH2 0xECC SWAP2 SWAP1 PUSH2 0x20F9 JUMP JUMPDEST PUSH1 0x40 MLOAD PUSH1 0x1 PUSH1 0x1 PUSH1 0xE0 SHL SUB NOT PUSH1 0xE0 DUP6 SWAP1 SHL AND DUP2 MSTORE PUSH1 0x1 PUSH1 0x1 PUSH1 0xA0 SHL SUB SWAP1 SWAP3 AND PUSH1 0x4 DUP4 ADD MSTORE PUSH1 0x24 DUP3 ADD MSTORE PUSH1 0x44 ADD PUSH1 0x20 PUSH1 0x40 MLOAD DUP1 DUP4 SUB DUP2 PUSH0 DUP8 GAS CALL ISZERO DUP1 ISZERO PUSH2 0xF14 JUMPI RETURNDATASIZE PUSH0 PUSH0 RETURNDATACOPY RETURNDATASIZE PUSH0 REVERT JUMPDEST POP POP POP POP PUSH1 0x40 MLOAD RETURNDATASIZE PUSH1 0x1F NOT PUSH1 0x1F DUP3 ADD AND DUP3 ADD DUP1 PUSH1 0x40 MSTORE POP DUP2 ADD SWAP1 PUSH2 0xF38 SWAP2 SWAP1 PUSH2 0x2118 JUMP JUMPDEST POP PUSH1 0x40 MLOAD PUSH4 0x70A08231 PUSH1 0xE0 SHL DUP2 MSTORE ADDRESS PUSH1 0x4 DUP3 ADD MSTORE PUSH0 SWAP1 PUSH32 0x0 PUSH1 0x1 PUSH1 0x1 PUSH1 0xA0 SHL SUB AND SWAP1 PUSH4 0x70A08231 SWAP1 PUSH1 0x24 ADD PUSH1 0x20 PUSH1 0x40 MLOAD DUP1 DUP4 SUB DUP2 DUP7 GAS STATICCALL ISZERO DUP1 ISZERO PUSH2 0xF9D JUMPI RETURNDATASIZE PUSH0 PUSH0 RETURNDATACOPY RETURNDATASIZE PUSH0 REVERT JUMPDEST POP POP POP POP PUSH1 0x40 MLOAD RETURNDATASIZE PUSH1 0x1F NOT PUSH1 0x1F DUP3 ADD AND DUP3 ADD DUP1 PUSH1 0x40 MSTORE POP DUP2 ADD SWAP1 PUSH2 0xFC1 SWAP2 SWAP1 PUSH2 0x2054 JUMP JUMPDEST SWAP1 POP DUP3 DUP2 LT ISZERO PUSH2 0xFEE JUMPI PUSH1 0x40 MLOAD PUSH4 0x3151A051 PUSH1 0xE1 SHL DUP2 MSTORE PUSH1 0x4 DUP2 ADD DUP5 SWAP1 MSTORE PUSH1 0x24 DUP2 ADD DUP3 SWAP1 MSTORE PUSH1 0x44 ADD PUSH2 0x68A JUMP JUMPDEST PUSH0 PUSH2 0xFF9 DUP5 DUP4 PUSH2 0x1F8B JUMP JUMPDEST PUSH1 0x40 DUP1 MLOAD DUP14 DUP2 MSTORE PUSH1 0x1 PUSH1 0x1 PUSH1 0xA0 SHL SUB DUP11 AND PUSH1 0x20 DUP3 ADD MSTORE SWAP1 DUP2 ADD DUP9 SWAP1 MSTORE PUSH1 0x60 DUP2 ADD DUP8 SWAP1 MSTORE PUSH1 0x80 DUP2 ADD DUP6 SWAP1 MSTORE PUSH1 0xA0 DUP2 ADD DUP3 SWAP1 MSTORE SWAP1 SWAP2 POP CALLER SWAP1 PUSH32 0xB75D0B7519EF7343AA58024845F6B742C61BAB11B677EE9A3A80E005DF5DD986 SWAP1 PUSH1 0xC0 ADD PUSH1 0x40 MLOAD DUP1 SWAP2 SUB SWAP1 LOG2 POP POP POP POP POP POP POP POP POP POP POP JUMP JUMPDEST PUSH2 0x1074 DUP5 DUP5 DUP5 PUSH2 0x665 JUMP JUMPDEST PUSH2 0x6ED CALLER DUP6 DUP6 DUP6 DUP6 PUSH2 0x15A2 JUMP JUMPDEST PUSH1 0x60 PUSH2 0x108C DUP3 PUSH2 0x12EB JUMP JUMPDEST POP PUSH0 PUSH2 0x10A2 PUSH1 0x40 DUP1 MLOAD PUSH1 0x20 DUP2 ADD SWAP1 SWAP2 MSTORE PUSH0 DUP2 MSTORE SWAP1 JUMP JUMPDEST SWAP1 POP PUSH0 DUP2 MLOAD GT PUSH2 0x10C0 JUMPI PUSH1 0x40 MLOAD DUP1 PUSH1 0x20 ADD PUSH1 0x40 MSTORE DUP1 PUSH0 DUP2 MSTORE POP PUSH2 0x7A0 JUMP JUMPDEST DUP1 PUSH2 0x10CA DUP5 PUSH2 0x16CA JUMP JUMPDEST PUSH1 0x40 MLOAD PUSH1 0x20 ADD PUSH2 0x10DB SWAP3 SWAP2 SWAP1 PUSH2 0x2133 JUMP JUMPDEST PUSH1 0x40 MLOAD PUSH1 0x20 DUP2 DUP4 SUB SUB DUP2 MSTORE SWAP1 PUSH1 0x40 MSTORE SWAP4 SWAP3 POP POP POP JUMP JUMPDEST PUSH1 0x1 PUSH1 0x1 PUSH1 0xA0 SHL SUB SWAP2 DUP3 AND PUSH0 SWAP1 DUP2 MSTORE PUSH1 0x5 PUSH1 0x20 SWAP1 DUP2 MSTORE PUSH1 0x40 DUP1 DUP4 KECCAK256 SWAP4 SWAP1 SWAP5 AND DUP3 MSTORE SWAP2 SWAP1 SWAP2 MSTORE KECCAK256 SLOAD PUSH1 0xFF AND SWAP1 JUMP JUMPDEST PUSH0 PUSH1 0x1 PUSH1 0x1 PUSH1 0xA0 SHL SUB DUP4 AND ISZERO DUP1 PUSH2 0x1133 JUMPI POP DUP2 ISZERO JUMPDEST ISZERO PUSH2 0x1151 JUMPI PUSH1 0x40 MLOAD PUSH4 0xA88EE577 PUSH1 0xE0 SHL DUP2 MSTORE PUSH1 0x4 ADD PUSH1 0x40 MLOAD DUP1 SWAP2 SUB SWAP1 REVERT JUMPDEST PUSH1 0x1 PUSH1 0x6 PUSH0 DUP3 DUP3 SLOAD PUSH2 0x1163 SWAP2 SWAP1 PUSH2 0x2147 JUMP JUMPDEST SWAP1 SWAP2 SSTORE POP POP PUSH1 0x40 MLOAD PUSH4 0x23B872DD PUSH1 0xE0 SHL DUP2 MSTORE PUSH1 0x1 PUSH1 0x1 PUSH1 0xA0 SHL SUB DUP5 DUP2 AND PUSH1 0x4 DUP4 ADD MSTORE ADDRESS PUSH1 0x24 DUP4 ADD MSTORE PUSH1 0x44 DUP3 ADD DUP5 SWAP1 MSTORE PUSH32 0x0 AND SWAP1 PUSH4 0x23B872DD SWAP1 PUSH1 0x64 ADD PUSH1 0x20 PUSH1 0x40 MLOAD DUP1 DUP4 SUB DUP2 PUSH0 DUP8 GAS CALL ISZERO DUP1 ISZERO PUSH2 0x11DA JUMPI RETURNDATASIZE PUSH0 PUSH0 RETURNDATACOPY RETURNDATASIZE PUSH0 REVERT JUMPDEST POP POP POP POP PUSH1 0x40 MLOAD RETURNDATASIZE PUSH1 0x1F NOT PUSH1 0x1F DUP3 ADD AND DUP3 ADD DUP1 PUSH1 0x40 MSTORE POP DUP2 ADD SWAP1 PUSH2 0x11FE SWAP2 SWAP1 PUSH2 0x2118 JUMP JUMPDEST POP DUP2 PUSH1 0x7 PUSH0 DUP3 DUP3 SLOAD PUSH2 0x1210 SWAP2 SWAP1 PUSH2 0x2147 JUMP JUMPDEST SWAP1 SWAP2 SSTORE POP POP PUSH1 0x6 DUP1 SLOAD PUSH0 SWAP1 DUP2 MSTORE PUSH1 0x9 PUSH1 0x20 MSTORE PUSH1 0x40 DUP1 DUP3 KECCAK256 DUP6 SWAP1 SSTORE PUSH1 0x8 SLOAD DUP4 SLOAD DUP4 MSTORE SWAP2 KECCAK256 PUSH1 0x1 ADD SSTORE SLOAD PUSH2 0x1243 SWAP1 DUP5 SWAP1 PUSH2 0x175A JUMP JUMPDEST PUSH1 0x6 SLOAD PUSH1 0x8 SLOAD PUSH1 0x40 DUP1 MLOAD SWAP3 DUP4 MSTORE PUSH1 0x20 DUP4 ADD DUP6 SWAP1 MSTORE DUP3 ADD MSTORE PUSH1 0x1 PUSH1 0x1 PUSH1 0xA0 SHL SUB DUP5 AND SWAP1 PUSH32 0x99A12A7AEFBBB67909C2BEE4A5E2DDB98B2183B8AE2A59E5A7DB47F53453345D SWAP1 PUSH1 0x60 ADD PUSH1 0x40 MLOAD DUP1 SWAP2 SUB SWAP1 LOG2 POP PUSH1 0x6 SLOAD SWAP3 SWAP2 POP POP JUMP JUMPDEST PUSH0 PUSH1 0x1 PUSH1 0x1 PUSH1 0xE0 SHL SUB NOT DUP3 AND PUSH4 0x80AC58CD PUSH1 0xE0 SHL EQ DUP1 PUSH2 0x12CC JUMPI POP PUSH1 0x1 PUSH1 0x1 PUSH1 0xE0 SHL SUB NOT DUP3 AND PUSH4 0x5B5E139F PUSH1 0xE0 SHL EQ JUMPDEST DUP1 PUSH2 0x4A4 JUMPI POP PUSH4 0x1FFC9A7 PUSH1 0xE0 SHL PUSH1 0x1 PUSH1 0x1 PUSH1 0xE0 SHL SUB NOT DUP4 AND EQ PUSH2 0x4A4 JUMP JUMPDEST PUSH0 DUP2 DUP2 MSTORE PUSH1 0x2 PUSH1 0x20 MSTORE PUSH1 0x40 DUP2 KECCAK256 SLOAD PUSH1 0x1 PUSH1 0x1 PUSH1 0xA0 SHL SUB AND DUP1 PUSH2 0x4A4 JUMPI PUSH1 0x40 MLOAD PUSH4 0x7E273289 PUSH1 0xE0 SHL DUP2 MSTORE PUSH1 0x4 DUP2 ADD DUP5 SWAP1 MSTORE PUSH1 0x24 ADD PUSH2 0x68A JUMP JUMPDEST PUSH2 0xA67 DUP4 DUP4 DUP4 PUSH1 0x1 PUSH2 0x17BB JUMP JUMPDEST PUSH0 DUP3 DUP2 MSTORE PUSH1 0x2 PUSH1 0x20 MSTORE PUSH1 0x40 DUP2 KECCAK256 SLOAD PUSH1 0x1 PUSH1 0x1 PUSH1 0xA0 SHL SUB SWAP1 DUP2 AND SWAP1 DUP4 AND ISZERO PUSH2 0x135C JUMPI PUSH2 0x135C DUP2 DUP5 DUP7 PUSH2 0x18BF JUMP JUMPDEST PUSH1 0x1 PUSH1 0x1 PUSH1 0xA0 SHL SUB DUP2 AND ISZERO PUSH2 0x1396 JUMPI PUSH2 0x1377 PUSH0 DUP6 PUSH0 PUSH0 PUSH2 0x17BB JUMP JUMPDEST PUSH1 0x1 PUSH1 0x1 PUSH1 0xA0 SHL SUB DUP2 AND PUSH0 SWAP1 DUP2 MSTORE PUSH1 0x3 PUSH1 0x20 MSTORE PUSH1 0x40 SWAP1 KECCAK256 DUP1 SLOAD PUSH0 NOT ADD SWAP1 SSTORE JUMPDEST PUSH1 0x1 PUSH1 0x1 PUSH1 0xA0 SHL SUB DUP6 AND ISZERO PUSH2 0x13C4 JUMPI PUSH1 0x1 PUSH1 0x1 PUSH1 0xA0 SHL SUB DUP6 AND PUSH0 SWAP1 DUP2 MSTORE PUSH1 0x3 PUSH1 0x20 MSTORE PUSH1 0x40 SWAP1 KECCAK256 DUP1 SLOAD PUSH1 0x1 ADD SWAP1 SSTORE JUMPDEST PUSH0 DUP5 DUP2 MSTORE PUSH1 0x2 PUSH1 0x20 MSTORE PUSH1 0x40 DUP1 DUP3 KECCAK256 DUP1 SLOAD PUSH1 0x1 PUSH1 0x1 PUSH1 0xA0 SHL SUB NOT AND PUSH1 0x1 PUSH1 0x1 PUSH1 0xA0 SHL SUB DUP10 DUP2 AND SWAP2 DUP3 OR SWAP1 SWAP3 SSTORE SWAP2 MLOAD DUP8 SWAP4 SWAP2 DUP6 AND SWAP2 PUSH32 0xDDF252AD1BE2C89B69C2B068FC378DAA952BA7F163C4A11628F55A4DF523B3EF SWAP2 LOG4 SWAP5 SWAP4 POP POP POP POP JUMP JUMPDEST PUSH0 DUP3 DUP3 XOR DUP3 DUP5 LT MUL DUP3 XOR PUSH2 0x7A0 JUMP JUMPDEST PUSH1 0x1 PUSH1 0x1 PUSH1 0xA0 SHL SUB DUP3 AND PUSH2 0x1463 JUMPI PUSH1 0x40 MLOAD PUSH4 0xB611743 PUSH1 0xE3 SHL DUP2 MSTORE PUSH1 0x1 PUSH1 0x1 PUSH1 0xA0 SHL SUB DUP4 AND PUSH1 0x4 DUP3 ADD MSTORE PUSH1 0x24 ADD PUSH2 0x68A JUMP JUMPDEST PUSH1 0x1 PUSH1 0x1 PUSH1 0xA0 SHL SUB DUP4 DUP2 AND PUSH0 DUP2 DUP2 MSTORE PUSH1 0x5 PUSH1 0x20 SWAP1 DUP2 MSTORE PUSH1 0x40 DUP1 DUP4 KECCAK256 SWAP5 DUP8 AND DUP1 DUP5 MSTORE SWAP5 DUP3 MSTORE SWAP2 DUP3 SWAP1 KECCAK256 DUP1 SLOAD PUSH1 0xFF NOT AND DUP7 ISZERO ISZERO SWAP1 DUP2 OR SWAP1 SWAP2 SSTORE SWAP2 MLOAD SWAP2 DUP3 MSTORE PUSH32 0x17307EAB39AB6107E8899845AD3D59BD9653F200F220920489CA2B5937696C31 SWAP2 ADD PUSH1 0x40 MLOAD DUP1 SWAP2 SUB SWAP1 LOG3 POP POP POP JUMP JUMPDEST PUSH0 PUSH0 PUSH1 0x40 MLOAD DUP1 PUSH1 0xA0 ADD PUSH1 0x40 MSTORE DUP1 PUSH2 0x14E6 DUP9 DUP9 PUSH2 0x56F JUMP JUMPDEST DUP2 MSTORE PUSH1 0x20 ADD ADDRESS PUSH1 0x1 PUSH1 0x1 PUSH1 0xA0 SHL SUB AND DUP2 MSTORE PUSH1 0x20 ADD TIMESTAMP DUP2 MSTORE PUSH1 0x20 ADD DUP6 DUP2 MSTORE PUSH1 0x20 ADD DUP5 DUP2 MSTORE POP SWAP1 POP PUSH32 0x0 PUSH1 0x1 PUSH1 0x1 PUSH1 0xA0 SHL SUB AND PUSH4 0xC04B8D59 DUP3 PUSH1 0x40 MLOAD DUP3 PUSH4 0xFFFFFFFF AND PUSH1 0xE0 SHL DUP2 MSTORE PUSH1 0x4 ADD PUSH2 0x1558 SWAP2 SWAP1 PUSH2 0x215A JUMP JUMPDEST PUSH1 0x20 PUSH1 0x40 MLOAD DUP1 DUP4 SUB DUP2 PUSH0 DUP8 GAS CALL ISZERO DUP1 ISZERO PUSH2 0x1574 JUMPI RETURNDATASIZE PUSH0 PUSH0 RETURNDATACOPY RETURNDATASIZE PUSH0 REVERT JUMPDEST POP POP POP POP PUSH1 0x40 MLOAD RETURNDATASIZE PUSH1 0x1F NOT PUSH1 0x1F DUP3 ADD AND DUP3 ADD DUP1 PUSH1 0x40 MSTORE POP DUP2 ADD SWAP1 PUSH2 0x1598 SWAP2 SWAP1 PUSH2 0x2054 JUMP JUMPDEST SWAP7 SWAP6 POP POP POP POP POP POP JUMP JUMPDEST PUSH1 0x1 PUSH1 0x1 PUSH1 0xA0 SHL SUB DUP4 AND EXTCODESIZE ISZERO PUSH2 0x16C3 JUMPI PUSH1 0x40 MLOAD PUSH4 0xA85BD01 PUSH1 0xE1 SHL DUP2 MSTORE PUSH1 0x1 PUSH1 0x1 PUSH1 0xA0 SHL SUB DUP5 AND SWAP1 PUSH4 0x150B7A02 SWAP1 PUSH2 0x15E4 SWAP1 DUP9 SWAP1 DUP9 SWAP1 DUP8 SWAP1 DUP8 SWAP1 PUSH1 0x4 ADD PUSH2 0x21B1 JUMP JUMPDEST PUSH1 0x20 PUSH1 0x40 MLOAD DUP1 DUP4 SUB DUP2 PUSH0 DUP8 GAS CALL SWAP3 POP POP POP DUP1 ISZERO PUSH2 0x161E JUMPI POP PUSH1 0x40 DUP1 MLOAD PUSH1 0x1F RETURNDATASIZE SWAP1 DUP2 ADD PUSH1 0x1F NOT AND DUP3 ADD SWAP1 SWAP3 MSTORE PUSH2 0x161B SWAP2 DUP2 ADD SWAP1 PUSH2 0x21E3 JUMP JUMPDEST PUSH1 0x1 JUMPDEST PUSH2 0x1685 JUMPI RETURNDATASIZE DUP1 DUP1 ISZERO PUSH2 0x164B JUMPI PUSH1 0x40 MLOAD SWAP2 POP PUSH1 0x1F NOT PUSH1 0x3F RETURNDATASIZE ADD AND DUP3 ADD PUSH1 0x40 MSTORE RETURNDATASIZE DUP3 MSTORE RETURNDATASIZE PUSH0 PUSH1 0x20 DUP5 ADD RETURNDATACOPY PUSH2 0x1650 JUMP JUMPDEST PUSH1 0x60 SWAP2 POP JUMPDEST POP DUP1 MLOAD PUSH0 SUB PUSH2 0x167D JUMPI PUSH1 0x40 MLOAD PUSH4 0x32505749 PUSH1 0xE1 SHL DUP2 MSTORE PUSH1 0x1 PUSH1 0x1 PUSH1 0xA0 SHL SUB DUP6 AND PUSH1 0x4 DUP3 ADD MSTORE PUSH1 0x24 ADD PUSH2 0x68A JUMP JUMPDEST DUP1 MLOAD DUP2 PUSH1 0x20 ADD REVERT JUMPDEST PUSH1 0x1 PUSH1 0x1 PUSH1 0xE0 SHL SUB NOT DUP2 AND PUSH4 0xA85BD01 PUSH1 0xE1 SHL EQ PUSH2 0x16C1 JUMPI PUSH1 0x40 MLOAD PUSH4 0x32505749 PUSH1 0xE1 SHL DUP2 MSTORE PUSH1 0x1 PUSH1 0x1 PUSH1 0xA0 SHL SUB DUP6 AND PUSH1 0x4 DUP3 ADD MSTORE PUSH1 0x24 ADD PUSH2 0x68A JUMP JUMPDEST POP JUMPDEST POP POP POP POP POP JUMP JUMPDEST PUSH1 0x60 PUSH0 PUSH2 0x16D6 DUP4 PUSH2 0x1923 JUMP JUMPDEST PUSH1 0x1 ADD SWAP1 POP PUSH0 DUP2 PUSH8 0xFFFFFFFFFFFFFFFF DUP2 GT ISZERO PUSH2 0x16F5 JUMPI PUSH2 0x16F5 PUSH2 0x1B26 JUMP JUMPDEST PUSH1 0x40 MLOAD SWAP1 DUP1 DUP3 MSTORE DUP1 PUSH1 0x1F ADD PUSH1 0x1F NOT AND PUSH1 0x20 ADD DUP3 ADD PUSH1 0x40 MSTORE DUP1 ISZERO PUSH2 0x171F JUMPI PUSH1 0x20 DUP3 ADD DUP2 DUP1 CALLDATASIZE DUP4 CALLDATACOPY ADD SWAP1 POP JUMPDEST POP SWAP1 POP DUP2 DUP2 ADD PUSH1 0x20 ADD JUMPDEST PUSH0 NOT ADD PUSH16 0x181899199A1A9B1B9C1CB0B131B232B3 PUSH1 0x81 SHL PUSH1 0xA DUP7 MOD BYTE DUP2 MSTORE8 PUSH1 0xA DUP6 DIV SWAP5 POP DUP5 PUSH2 0x1729 JUMPI POP SWAP4 SWAP3 POP POP POP JUMP JUMPDEST PUSH1 0x1 PUSH1 0x1 PUSH1 0xA0 SHL SUB DUP3 AND PUSH2 0x1783 JUMPI PUSH1 0x40 MLOAD PUSH4 0x32505749 PUSH1 0xE1 SHL DUP2 MSTORE PUSH0 PUSH1 0x4 DUP3 ADD MSTORE PUSH1 0x24 ADD PUSH2 0x68A JUMP JUMPDEST PUSH0 PUSH2 0x178F DUP4 DUP4 PUSH0 PUSH2 0x1330 JUMP JUMPDEST SWAP1 POP PUSH1 0x1 PUSH1 0x1 PUSH1 0xA0 SHL SUB DUP2 AND ISZERO PUSH2 0xA67 JUMPI PUSH1 0x40 MLOAD PUSH4 0x39E35637 PUSH1 0xE1 SHL DUP2 MSTORE PUSH0 PUSH1 0x4 DUP3 ADD MSTORE PUSH1 0x24 ADD PUSH2 0x68A JUMP JUMPDEST DUP1 DUP1 PUSH2 0x17CF JUMPI POP PUSH1 0x1 PUSH1 0x1 PUSH1 0xA0 SHL SUB DUP3 AND ISZERO ISZERO JUMPDEST ISZERO PUSH2 0x1890 JUMPI PUSH0 PUSH2 0x17DE DUP5 PUSH2 0x12EB JUMP JUMPDEST SWAP1 POP PUSH1 0x1 PUSH1 0x1 PUSH1 0xA0 SHL SUB DUP4 AND ISZERO DUP1 ISZERO SWAP1 PUSH2 0x180A JUMPI POP DUP3 PUSH1 0x1 PUSH1 0x1 PUSH1 0xA0 SHL SUB AND DUP2 PUSH1 0x1 PUSH1 0x1 PUSH1 0xA0 SHL SUB AND EQ ISZERO JUMPDEST DUP1 ISZERO PUSH2 0x181D JUMPI POP PUSH2 0x181B DUP2 DUP5 PUSH2 0x10F1 JUMP JUMPDEST ISZERO JUMPDEST ISZERO PUSH2 0x1846 JUMPI PUSH1 0x40 MLOAD PUSH4 0xA9FBF51F PUSH1 0xE0 SHL DUP2 MSTORE PUSH1 0x1 PUSH1 0x1 PUSH1 0xA0 SHL SUB DUP5 AND PUSH1 0x4 DUP3 ADD MSTORE PUSH1 0x24 ADD PUSH2 0x68A JUMP JUMPDEST DUP2 ISZERO PUSH2 0x188E JUMPI DUP4 DUP6 PUSH1 0x1 PUSH1 0x1 PUSH1 0xA0 SHL SUB AND DUP3 PUSH1 0x1 PUSH1 0x1 PUSH1 0xA0 SHL SUB AND PUSH32 0x8C5BE1E5EBEC7D5BD14F71427D1E84F3DD0314C0F7B2291E5B200AC8C7C3B925 PUSH1 0x40 MLOAD PUSH1 0x40 MLOAD DUP1 SWAP2 SUB SWAP1 LOG4 JUMPDEST POP JUMPDEST POP POP PUSH0 SWAP1 DUP2 MSTORE PUSH1 0x4 PUSH1 0x20 MSTORE PUSH1 0x40 SWAP1 KECCAK256 DUP1 SLOAD PUSH1 0x1 PUSH1 0x1 PUSH1 0xA0 SHL SUB NOT AND PUSH1 0x1 PUSH1 0x1 PUSH1 0xA0 SHL SUB SWAP3 SWAP1 SWAP3 AND SWAP2 SWAP1 SWAP2 OR SWAP1 SSTORE JUMP JUMPDEST PUSH2 0x18CA DUP4 DUP4 DUP4 PUSH2 0x19FA JUMP JUMPDEST PUSH2 0xA67 JUMPI PUSH1 0x1 PUSH1 0x1 PUSH1 0xA0 SHL SUB DUP4 AND PUSH2 0x18F8 JUMPI PUSH1 0x40 MLOAD PUSH4 0x7E273289 PUSH1 0xE0 SHL DUP2 MSTORE PUSH1 0x4 DUP2 ADD DUP3 SWAP1 MSTORE PUSH1 0x24 ADD PUSH2 0x68A JUMP JUMPDEST PUSH1 0x40 MLOAD PUSH4 0x177E802F PUSH1 0xE0 SHL DUP2 MSTORE PUSH1 0x1 PUSH1 0x1 PUSH1 0xA0 SHL SUB DUP4 AND PUSH1 0x4 DUP3 ADD MSTORE PUSH1 0x24 DUP2 ADD DUP3 SWAP1 MSTORE PUSH1 0x44 ADD PUSH2 0x68A JUMP JUMPDEST PUSH0 DUP1 PUSH19 0x184F03E93FF9F4DAA797ED6E38ED64BF6A1F01 PUSH1 0x40 SHL DUP4 LT PUSH2 0x1961 JUMPI PUSH19 0x184F03E93FF9F4DAA797ED6E38ED64BF6A1F01 PUSH1 0x40 SHL DUP4 DIV SWAP3 POP PUSH1 0x40 ADD JUMPDEST PUSH14 0x4EE2D6D415B85ACEF8100000000 DUP4 LT PUSH2 0x198D JUMPI PUSH14 0x4EE2D6D415B85ACEF8100000000 DUP4 DIV SWAP3 POP PUSH1 0x20 ADD JUMPDEST PUSH7 0x2386F26FC10000 DUP4 LT PUSH2 0x19AB JUMPI PUSH7 0x2386F26FC10000 DUP4 DIV SWAP3 POP PUSH1 0x10 ADD JUMPDEST PUSH4 0x5F5E100 DUP4 LT PUSH2 0x19C3 JUMPI PUSH4 0x5F5E100 DUP4 DIV SWAP3 POP PUSH1 0x8 ADD JUMPDEST PUSH2 0x2710 DUP4 LT PUSH2 0x19D7 JUMPI PUSH2 0x2710 DUP4 DIV SWAP3 POP PUSH1 0x4 ADD JUMPDEST PUSH1 0x64 DUP4 LT PUSH2 0x19E9 JUMPI PUSH1 0x64 DUP4 DIV SWAP3 POP PUSH1 0x2 ADD JUMPDEST PUSH1 0xA DUP4 LT PUSH2 0x4A4 JUMPI PUSH1 0x1 ADD SWAP3 SWAP2 POP POP JUMP JUMPDEST PUSH0 PUSH1 0x1 PUSH1 0x1 PUSH1 0xA0 SHL SUB DUP4 AND ISZERO DUP1 ISZERO SWAP1 PUSH2 0x1A56 JUMPI POP DUP3 PUSH1 0x1 PUSH1 0x1 PUSH1 0xA0 SHL SUB AND DUP5 PUSH1 0x1 PUSH1 0x1 PUSH1 0xA0 SHL SUB AND EQ DUP1 PUSH2 0x1A33 JUMPI POP PUSH2 0x1A33 DUP5 DUP5 PUSH2 0x10F1 JUMP JUMPDEST DUP1 PUSH2 0x1A56 JUMPI POP PUSH0 DUP3 DUP2 MSTORE PUSH1 0x4 PUSH1 0x20 MSTORE PUSH1 0x40 SWAP1 KECCAK256 SLOAD PUSH1 0x1 PUSH1 0x1 PUSH1 0xA0 SHL SUB DUP5 DUP2 AND SWAP2 AND EQ JUMPDEST SWAP5 SWAP4 POP POP POP POP JUMP JUMPDEST PUSH1 0x1 PUSH1 0x1 PUSH1 0xE0 SHL SUB NOT DUP2 AND DUP2 EQ PUSH2 0x1A73 JUMPI PUSH0 PUSH0 REVERT JUMPDEST POP JUMP JUMPDEST PUSH0 PUSH1 0x20 DUP3 DUP5 SUB SLT ISZERO PUSH2 0x1A86 JUMPI PUSH0 PUSH0 REVERT JUMPDEST DUP2 CALLDATALOAD PUSH2 0x7A0 DUP2 PUSH2 0x1A5E JUMP JUMPDEST PUSH0 DUP2 MLOAD DUP1 DUP5 MSTORE DUP1 PUSH1 0x20 DUP5 ADD PUSH1 0x20 DUP7 ADD MCOPY PUSH0 PUSH1 0x20 DUP3 DUP7 ADD ADD MSTORE PUSH1 0x20 PUSH1 0x1F NOT PUSH1 0x1F DUP4 ADD AND DUP6 ADD ADD SWAP2 POP POP SWAP3 SWAP2 POP POP JUMP JUMPDEST PUSH1 0x20 DUP2 MSTORE PUSH0 PUSH2 0x7A0 PUSH1 0x20 DUP4 ADD DUP5 PUSH2 0x1A91 JUMP JUMPDEST PUSH0 PUSH1 0x20 DUP3 DUP5 SUB SLT ISZERO PUSH2 0x1AE1 JUMPI PUSH0 PUSH0 REVERT JUMPDEST POP CALLDATALOAD SWAP2 SWAP1 POP JUMP JUMPDEST PUSH1 0x1 PUSH1 0x1 PUSH1 0xA0 SHL SUB DUP2 AND DUP2 EQ PUSH2 0x1A73 JUMPI PUSH0 PUSH0 REVERT JUMPDEST PUSH0 PUSH0 PUSH1 0x40 DUP4 DUP6 SUB SLT ISZERO PUSH2 0x1B0D JUMPI PUSH0 PUSH0 REVERT JUMPDEST DUP3 CALLDATALOAD PUSH2 0x1B18 DUP2 PUSH2 0x1AE8 JUMP JUMPDEST SWAP5 PUSH1 0x20 SWAP4 SWAP1 SWAP4 ADD CALLDATALOAD SWAP4 POP POP POP JUMP JUMPDEST PUSH4 0x4E487B71 PUSH1 0xE0 SHL PUSH0 MSTORE PUSH1 0x41 PUSH1 0x4 MSTORE PUSH1 0x24 PUSH0 REVERT JUMPDEST PUSH1 0x40 MLOAD PUSH1 0x1F DUP3 ADD PUSH1 0x1F NOT AND DUP2 ADD PUSH8 0xFFFFFFFFFFFFFFFF DUP2 GT DUP3 DUP3 LT OR ISZERO PUSH2 0x1B63 JUMPI PUSH2 0x1B63 PUSH2 0x1B26 JUMP JUMPDEST PUSH1 0x40 MSTORE SWAP2 SWAP1 POP JUMP JUMPDEST PUSH0 PUSH8 0xFFFFFFFFFFFFFFFF DUP3 GT ISZERO PUSH2 0x1B84 JUMPI PUSH2 0x1B84 PUSH2 0x1B26 JUMP JUMPDEST POP PUSH1 0x5 SHL PUSH1 0x20 ADD SWAP1 JUMP JUMPDEST PUSH0 DUP3 PUSH1 0x1F DUP4 ADD SLT PUSH2 0x1B9D JUMPI PUSH0 PUSH0 REVERT JUMPDEST DUP2 CALLDATALOAD PUSH2 0x1BB0 PUSH2 0x1BAB DUP3 PUSH2 0x1B6B JUMP JUMPDEST PUSH2 0x1B3A JUMP JUMPDEST DUP1 DUP3 DUP3 MSTORE PUSH1 0x20 DUP3 ADD SWAP2 POP PUSH1 0x20 DUP4 PUSH1 0x5 SHL DUP7 ADD ADD SWAP3 POP DUP6 DUP4 GT ISZERO PUSH2 0x1BD1 JUMPI PUSH0 PUSH0 REVERT JUMPDEST PUSH1 0x20 DUP6 ADD JUMPDEST DUP4 DUP2 LT ISZERO PUSH2 0x1BF7 JUMPI DUP1 CALLDATALOAD PUSH2 0x1BE9 DUP2 PUSH2 0x1AE8 JUMP JUMPDEST DUP4 MSTORE PUSH1 0x20 SWAP3 DUP4 ADD SWAP3 ADD PUSH2 0x1BD6 JUMP JUMPDEST POP SWAP6 SWAP5 POP POP POP POP POP JUMP JUMPDEST PUSH0 DUP3 PUSH1 0x1F DUP4 ADD SLT PUSH2 0x1C10 JUMPI PUSH0 PUSH0 REVERT JUMPDEST DUP2 CALLDATALOAD PUSH2 0x1C1E PUSH2 0x1BAB DUP3 PUSH2 0x1B6B JUMP JUMPDEST DUP1 DUP3 DUP3 MSTORE PUSH1 0x20 DUP3 ADD SWAP2 POP PUSH1 0x20 DUP4 PUSH1 0x5 SHL DUP7 ADD ADD SWAP3 POP DUP6 DUP4 GT ISZERO PUSH2 0x1C3F JUMPI PUSH0 PUSH0 REVERT JUMPDEST PUSH1 0x20 DUP6 ADD JUMPDEST DUP4 DUP2 LT ISZERO PUSH2 0x1BF7 JUMPI DUP1 CALLDATALOAD PUSH3 0xFFFFFF DUP2 AND DUP2 EQ PUSH2 0x1C5E JUMPI PUSH0 PUSH0 REVERT JUMPDEST DUP4 MSTORE PUSH1 0x20 SWAP3 DUP4 ADD SWAP3 ADD PUSH2 0x1C44 JUMP JUMPDEST PUSH0 PUSH0 PUSH1 0x40 DUP4 DUP6 SUB SLT ISZERO PUSH2 0x1C7D JUMPI PUSH0 PUSH0 REVERT JUMPDEST DUP3 CALLDATALOAD PUSH8 0xFFFFFFFFFFFFFFFF DUP2 GT ISZERO PUSH2 0x1C93 JUMPI PUSH0 PUSH0 REVERT JUMPDEST PUSH2 0x1C9F DUP6 DUP3 DUP7 ADD PUSH2 0x1B8E JUMP JUMPDEST SWAP3 POP POP PUSH1 0x20 DUP4 ADD CALLDATALOAD PUSH8 0xFFFFFFFFFFFFFFFF DUP2 GT ISZERO PUSH2 0x1CBB JUMPI PUSH0 PUSH0 REVERT JUMPDEST PUSH2 0x1CC7 DUP6 DUP3 DUP7 ADD PUSH2 0x1C01 JUMP JUMPDEST SWAP2 POP POP SWAP3 POP SWAP3 SWAP1 POP JUMP JUMPDEST PUSH0 PUSH0 PUSH0 PUSH1 0x60 DUP5 DUP7 SUB SLT ISZERO PUSH2 0x1CE3 JUMPI PUSH0 PUSH0 REVERT JUMPDEST DUP4 CALLDATALOAD PUSH2 0x1CEE DUP2 PUSH2 0x1AE8 JUMP JUMPDEST SWAP3 POP PUSH1 0x20 DUP5 ADD CALLDATALOAD PUSH2 0x1CFE DUP2 PUSH2 0x1AE8 JUMP JUMPDEST SWAP3 SWAP6 SWAP3 SWAP5 POP POP POP PUSH1 0x40 SWAP2 SWAP1 SWAP2 ADD CALLDATALOAD SWAP1 JUMP JUMPDEST PUSH0 PUSH0 PUSH0 PUSH1 0x60 DUP5 DUP7 SUB SLT ISZERO PUSH2 0x1D21 JUMPI PUSH0 PUSH0 REVERT JUMPDEST DUP4 CALLDATALOAD PUSH8 0xFFFFFFFFFFFFFFFF DUP2 GT ISZERO PUSH2 0x1D37 JUMPI PUSH0 PUSH0 REVERT JUMPDEST PUSH2 0x1D43 DUP7 DUP3 DUP8 ADD PUSH2 0x1B8E JUMP JUMPDEST SWAP4 POP POP PUSH1 0x20 DUP5 ADD CALLDATALOAD PUSH8 0xFFFFFFFFFFFFFFFF DUP2 GT ISZERO PUSH2 0x1D5F JUMPI PUSH0 PUSH0 REVERT JUMPDEST PUSH2 0x1D6B DUP7 DUP3 DUP8 ADD PUSH2 0x1C01 JUMP JUMPDEST SWAP4 SWAP7 SWAP4 SWAP6 POP POP POP POP PUSH1 0x40 SWAP2 SWAP1 SWAP2 ADD CALLDATALOAD SWAP1 JUMP JUMPDEST PUSH0 PUSH1 0x20 DUP3 DUP5 SUB SLT ISZERO PUSH2 0x1D8D JUMPI PUSH0 PUSH0 REVERT JUMPDEST DUP2 CALLDATALOAD PUSH2 0x7A0 DUP2 PUSH2 0x1AE8 JUMP JUMPDEST DUP1 ISZERO ISZERO DUP2 EQ PUSH2 0x1A73 JUMPI PUSH0 PUSH0 REVERT JUMPDEST PUSH0 PUSH0 PUSH1 0x40 DUP4 DUP6 SUB SLT ISZERO PUSH2 0x1DB6 JUMPI PUSH0 PUSH0 REVERT JUMPDEST DUP3 CALLDATALOAD PUSH2 0x1DC1 DUP2 PUSH2 0x1AE8 JUMP JUMPDEST SWAP2 POP PUSH1 0x20 DUP4 ADD CALLDATALOAD PUSH2 0x1DD1 DUP2 PUSH2 0x1D98 JUMP JUMPDEST DUP1 SWAP2 POP POP SWAP3 POP SWAP3 SWAP1 POP JUMP JUMPDEST PUSH0 PUSH0 PUSH0 PUSH0 PUSH1 0x80 DUP6 DUP8 SUB SLT ISZERO PUSH2 0x1DEF JUMPI PUSH0 PUSH0 REVERT JUMPDEST DUP5 CALLDATALOAD SWAP4 POP PUSH1 0x20 DUP6 ADD CALLDATALOAD PUSH8 0xFFFFFFFFFFFFFFFF DUP2 GT ISZERO PUSH2 0x1E0C JUMPI PUSH0 PUSH0 REVERT JUMPDEST PUSH2 0x1E18 DUP8 DUP3 DUP9 ADD PUSH2 0x1B8E JUMP JUMPDEST SWAP4 POP POP PUSH1 0x40 DUP6 ADD CALLDATALOAD PUSH8 0xFFFFFFFFFFFFFFFF DUP2 GT ISZERO PUSH2 0x1E34 JUMPI PUSH0 PUSH0 REVERT JUMPDEST PUSH2 0x1E40 DUP8 DUP3 DUP9 ADD PUSH2 0x1C01 JUMP JUMPDEST SWAP5 SWAP8 SWAP4 SWAP7 POP SWAP4 SWAP5 PUSH1 0x60 ADD CALLDATALOAD SWAP4 POP POP POP JUMP JUMPDEST PUSH0 PUSH0 PUSH0 PUSH0 PUSH1 0x80 DUP6 DUP8 SUB SLT ISZERO PUSH2 0x1E64 JUMPI PUSH0 PUSH0 REVERT JUMPDEST DUP5 CALLDATALOAD PUSH2 0x1E6F DUP2 PUSH2 0x1AE8 JUMP JUMPDEST SWAP4 POP PUSH1 0x20 DUP6 ADD CALLDATALOAD PUSH2 0x1E7F DUP2 PUSH2 0x1AE8 JUMP JUMPDEST SWAP3 POP PUSH1 0x40 DUP6 ADD CALLDATALOAD SWAP2 POP PUSH1 0x60 DUP6 ADD CALLDATALOAD PUSH8 0xFFFFFFFFFFFFFFFF DUP2 GT ISZERO PUSH2 0x1EA1 JUMPI PUSH0 PUSH0 REVERT JUMPDEST DUP6 ADD PUSH1 0x1F DUP2 ADD DUP8 SGT PUSH2 0x1EB1 JUMPI PUSH0 PUSH0 REVERT JUMPDEST DUP1 CALLDATALOAD PUSH8 0xFFFFFFFFFFFFFFFF DUP2 GT ISZERO PUSH2 0x1ECB JUMPI PUSH2 0x1ECB PUSH2 0x1B26 JUMP JUMPDEST PUSH2 0x1EDE PUSH1 0x1F DUP3 ADD PUSH1 0x1F NOT AND PUSH1 0x20 ADD PUSH2 0x1B3A JUMP JUMPDEST DUP2 DUP2 MSTORE DUP9 PUSH1 0x20 DUP4 DUP6 ADD ADD GT ISZERO PUSH2 0x1EF2 JUMPI PUSH0 PUSH0 REVERT JUMPDEST DUP2 PUSH1 0x20 DUP5 ADD PUSH1 0x20 DUP4 ADD CALLDATACOPY PUSH0 PUSH1 0x20 DUP4 DUP4 ADD ADD MSTORE DUP1 SWAP4 POP POP POP POP SWAP3 SWAP6 SWAP2 SWAP5 POP SWAP3 POP JUMP JUMPDEST PUSH0 PUSH0 PUSH1 0x40 DUP4 DUP6 SUB SLT ISZERO PUSH2 0x1F24 JUMPI PUSH0 PUSH0 REVERT JUMPDEST DUP3 CALLDATALOAD PUSH2 0x1F2F DUP2 PUSH2 0x1AE8 JUMP JUMPDEST SWAP2 POP PUSH1 0x20 DUP4 ADD CALLDATALOAD PUSH2 0x1DD1 DUP2 PUSH2 0x1AE8 JUMP JUMPDEST PUSH1 0x1 DUP2 DUP2 SHR SWAP1 DUP3 AND DUP1 PUSH2 0x1F53 JUMPI PUSH1 0x7F DUP3 AND SWAP2 POP JUMPDEST PUSH1 0x20 DUP3 LT DUP2 SUB PUSH2 0x1F71 JUMPI PUSH4 0x4E487B71 PUSH1 0xE0 SHL PUSH0 MSTORE PUSH1 0x22 PUSH1 0x4 MSTORE PUSH1 0x24 PUSH0 REVERT JUMPDEST POP SWAP2 SWAP1 POP JUMP JUMPDEST PUSH4 0x4E487B71 PUSH1 0xE0 SHL PUSH0 MSTORE PUSH1 0x11 PUSH1 0x4 MSTORE PUSH1 0x24 PUSH0 REVERT JUMPDEST DUP2 DUP2 SUB DUP2 DUP2 GT ISZERO PUSH2 0x4A4 JUMPI PUSH2 0x4A4 PUSH2 0x1F77 JUMP JUMPDEST PUSH4 0x4E487B71 PUSH1 0xE0 SHL PUSH0 MSTORE PUSH1 0x32 PUSH1 0x4 MSTORE PUSH1 0x24 PUSH0 REVERT JUMPDEST PUSH0 DUP2 MLOAD DUP1 PUSH1 0x20 DUP5 ADD DUP6 MCOPY PUSH0 SWAP4 ADD SWAP3 DUP4 MSTORE POP SWAP1 SWAP2 SWAP1 POP JUMP JUMPDEST PUSH0 PUSH2 0x1FD4 DUP3 DUP7 PUSH2 0x1FB2 JUMP JUMPDEST PUSH1 0x60 SWAP5 SWAP1 SWAP5 SHL PUSH12 0xFFFFFFFFFFFFFFFFFFFFFFFF NOT AND DUP5 MSTORE POP POP PUSH1 0xE8 SHL PUSH1 0x1 PUSH1 0x1 PUSH1 0xE8 SHL SUB NOT AND PUSH1 0x14 DUP3 ADD MSTORE PUSH1 0x17 ADD SWAP2 SWAP1 POP JUMP JUMPDEST PUSH0 PUSH2 0x2012 DUP3 DUP6 PUSH2 0x1FB2 JUMP JUMPDEST PUSH1 0x60 SWAP4 SWAP1 SWAP4 SHL PUSH12 0xFFFFFFFFFFFFFFFFFFFFFFFF NOT AND DUP4 MSTORE POP POP PUSH1 0x14 ADD SWAP2 SWAP1 POP JUMP JUMPDEST PUSH1 0x40 DUP2 MSTORE PUSH0 PUSH2 0x2045 PUSH1 0x40 DUP4 ADD DUP6 PUSH2 0x1A91 JUMP JUMPDEST SWAP1 POP DUP3 PUSH1 0x20 DUP4 ADD MSTORE SWAP4 SWAP3 POP POP POP JUMP JUMPDEST PUSH0 PUSH1 0x20 DUP3 DUP5 SUB SLT ISZERO PUSH2 0x2064 JUMPI PUSH0 PUSH0 REVERT JUMPDEST POP MLOAD SWAP2 SWAP1 POP JUMP JUMPDEST PUSH0 PUSH0 PUSH0 PUSH0 PUSH1 0x80 DUP6 DUP8 SUB SLT ISZERO PUSH2 0x207E JUMPI PUSH0 PUSH0 REVERT JUMPDEST DUP5 MLOAD PUSH2 0x2089 DUP2 PUSH2 0x1AE8 JUMP JUMPDEST PUSH1 0x20 DUP7 ADD MLOAD SWAP1 SWAP5 POP PUSH8 0xFFFFFFFFFFFFFFFF DUP2 AND DUP2 EQ PUSH2 0x20A6 JUMPI PUSH0 PUSH0 REVERT JUMPDEST PUSH1 0x40 DUP7 ADD MLOAD SWAP1 SWAP4 POP PUSH2 0x20B7 DUP2 PUSH2 0x1AE8 JUMP JUMPDEST PUSH1 0x60 SWAP6 SWAP1 SWAP6 ADD MLOAD SWAP4 SWAP7 SWAP3 SWAP6 POP POP POP JUMP JUMPDEST PUSH0 PUSH1 0x20 DUP3 DUP5 SUB SLT ISZERO PUSH2 0x20D7 JUMPI PUSH0 PUSH0 REVERT JUMPDEST DUP2 MLOAD PUSH2 0x7A0 DUP2 PUSH2 0x1AE8 JUMP JUMPDEST DUP1 DUP3 MUL DUP2 ISZERO DUP3 DUP3 DIV DUP5 EQ OR PUSH2 0x4A4 JUMPI PUSH2 0x4A4 PUSH2 0x1F77 JUMP JUMPDEST PUSH0 DUP3 PUSH2 0x2113 JUMPI PUSH4 0x4E487B71 PUSH1 0xE0 SHL PUSH0 MSTORE PUSH1 0x12 PUSH1 0x4 MSTORE PUSH1 0x24 PUSH0 REVERT JUMPDEST POP DIV SWAP1 JUMP JUMPDEST PUSH0 PUSH1 0x20 DUP3 DUP5 SUB SLT ISZERO PUSH2 0x2128 JUMPI PUSH0 PUSH0 REVERT JUMPDEST DUP2 MLOAD PUSH2 0x7A0 DUP2 PUSH2 0x1D98 JUMP JUMPDEST PUSH0 PUSH2 0x1A56 PUSH2 0x2141 DUP4 DUP7 PUSH2 0x1FB2 JUMP JUMPDEST DUP5 PUSH2 0x1FB2 JUMP JUMPDEST DUP1 DUP3 ADD DUP1 DUP3 GT ISZERO PUSH2 0x4A4 JUMPI PUSH2 0x4A4 PUSH2 0x1F77 JUMP JUMPDEST PUSH1 0x20 DUP2 MSTORE PUSH0 DUP3 MLOAD PUSH1 0xA0 PUSH1 0x20 DUP5 ADD MSTORE PUSH2 0x2175 PUSH1 0xC0 DUP5 ADD DUP3 PUSH2 0x1A91 JUMP JUMPDEST SWAP1 POP PUSH1 0x1 DUP1 PUSH1 0xA0 SHL SUB PUSH1 0x20 DUP6 ADD MLOAD AND PUSH1 0x40 DUP5 ADD MSTORE PUSH1 0x40 DUP5 ADD MLOAD PUSH1 0x60 DUP5 ADD MSTORE PUSH1 0x60 DUP5 ADD MLOAD PUSH1 0x80 DUP5 ADD MSTORE PUSH1 0x80 DUP5 ADD MLOAD PUSH1 0xA0 DUP5 ADD MSTORE DUP1 SWAP2 POP POP SWAP3 SWAP2 POP POP JUMP JUMPDEST PUSH1 0x1 PUSH1 0x1 PUSH1 0xA0 SHL SUB DUP6 DUP2 AND DUP3 MSTORE DUP5 AND PUSH1 0x20 DUP3 ADD MSTORE PUSH1 0x40 DUP2 ADD DUP4 SWAP1 MSTORE PUSH1 0x80 PUSH1 0x60 DUP3 ADD DUP2 SWAP1 MSTORE PUSH0 SWAP1 PUSH2 0x1598 SWAP1 DUP4 ADD DUP5 PUSH2 0x1A91 JUMP JUMPDEST PUSH0 PUSH1 0x20 DUP3 DUP5 SUB SLT ISZERO PUSH2 0x21F3 JUMPI PUSH0 PUSH0 REVERT JUMPDEST DUP2 MLOAD PUSH2 0x7A0 DUP2 PUSH2 0x1A5E JUMP INVALID LOG2 PUSH5 0x6970667358 0x22 SLT KECCAK256 0xB2 0xE9 0x2E 0xC0 0xB6 CHAINID 0xBE SAR TSTORE 0xCE LOG3 0xE7 0x29 0xBC 0xBA EXTCODESIZE 0x1F PUSH13 0xEA8F2EBD237697DE13C8D95026 DELEGATECALL PUSH5 0x736F6C6343 STOP ADDMOD SHR STOP CALLER "
		},
		"gasEstimates": {
			"creation": {
				"codeDepositCost": "1751200",
				"executionCost": "infinite",
				"totalCost": "infinite"
			},
			"external": {
				"approve(address,uint256)": "31480",
				"balanceOf(address)": "2646",
				"create(uint256)": "infinite",
				"createTo(address,uint256)": "infinite",
				"encodePath(address[],uint24[])": "infinite",
				"execute(uint256,address[],uint24[],uint256)": "infinite",
				"fee()": "infinite",
				"funding(uint256)": "4620",
				"getApproved(uint256)": "infinite",
				"hub()": "infinite",
				"isApprovedForAll(address,address)": "infinite",
				"name()": "infinite",
				"ownerOf(uint256)": "infinite",
				"quoteAuction(uint256)": "infinite",
				"quoteUniswap(address[],uint24[],uint256)": "infinite",
				"quoter()": "infinite",
				"refRatio()": "2405",
				"safeTransferFrom(address,address,uint256)": "infinite",
				"safeTransferFrom(address,address,uint256,bytes)": "infinite",
				"setApprovalForAll(address,bool)": "infinite",
				"supportsInterface(bytes4)": "infinite",
				"swapRouter()": "infinite",
				"symbol()": "infinite",
				"tokenCnt()": "2383",
				"tokenURI(uint256)": "infinite",
				"totalFunds()": "2384",
				"transferFrom(address,address,uint256)": "infinite",
				"zchf()": "infinite"
			},
			"internal": {
				"executeSwap(address[] memory,uint24[] memory,uint256,uint256)": "infinite"
			}
		},
		"methodIdentifiers": {
			"approve(address,uint256)": "095ea7b3",
			"balanceOf(address)": "70a08231",
			"create(uint256)": "780900dc",
			"createTo(address,uint256)": "fdb05e85",
			"encodePath(address[],uint24[])": "21866205",
			"execute(uint256,address[],uint24[],uint256)": "a7433a11",
			"fee()": "ddca3f43",
			"funding(uint256)": "92ca60c1",
			"getApproved(uint256)": "081812fc",
			"hub()": "365a86fc",
			"isApprovedForAll(address,address)": "e985e9c5",
			"name()": "06fdde03",
			"ownerOf(uint256)": "6352211e",
			"quoteAuction(uint256)": "3dcc86fa",
			"quoteUniswap(address[],uint24[],uint256)": "303026d0",
			"quoter()": "c6bbd5a7",
			"refRatio()": "78a5171a",
			"safeTransferFrom(address,address,uint256)": "42842e0e",
			"safeTransferFrom(address,address,uint256,bytes)": "b88d4fde",
			"setApprovalForAll(address,bool)": "a22cb465",
			"supportsInterface(bytes4)": "01ffc9a7",
			"swapRouter()": "c31c9c07",
			"symbol()": "95d89b41",
			"tokenCnt()": "a7c78437",
			"tokenURI(uint256)": "c87b56dd",
			"totalFunds()": "968ed600",
			"transferFrom(address,address,uint256)": "23b872dd",
			"zchf()": "c4d4803a"
		}
	},
	"abi": [
		{
			"inputs": [
				{
					"internalType": "contract ISwapRouter",
					"name": "_swapRouter",
					"type": "address"
				},
				{
					"internalType": "contract IQuoter",
					"name": "_quoter",
					"type": "address"
				},
				{
					"internalType": "contract IFrankencoin",
					"name": "_zchf",
					"type": "address"
				},
				{
					"internalType": "contract IMintingHubV1",
					"name": "_hub",
					"type": "address"
				},
				{
					"internalType": "string",
					"name": "name",
					"type": "string"
				},
				{
					"internalType": "string",
					"name": "symbol",
					"type": "string"
				}
			],
			"stateMutability": "nonpayable",
			"type": "constructor"
		},
		{
			"inputs": [
				{
					"internalType": "address",
					"name": "sender",
					"type": "address"
				},
				{
					"internalType": "uint256",
					"name": "tokenId",
					"type": "uint256"
				},
				{
					"internalType": "address",
					"name": "owner",
					"type": "address"
				}
			],
			"name": "ERC721IncorrectOwner",
			"type": "error"
		},
		{
			"inputs": [
				{
					"internalType": "address",
					"name": "operator",
					"type": "address"
				},
				{
					"internalType": "uint256",
					"name": "tokenId",
					"type": "uint256"
				}
			],
			"name": "ERC721InsufficientApproval",
			"type": "error"
		},
		{
			"inputs": [
				{
					"internalType": "address",
					"name": "approver",
					"type": "address"
				}
			],
			"name": "ERC721InvalidApprover",
			"type": "error"
		},
		{
			"inputs": [
				{
					"internalType": "address",
					"name": "operator",
					"type": "address"
				}
			],
			"name": "ERC721InvalidOperator",
			"type": "error"
		},
		{
			"inputs": [
				{
					"internalType": "address",
					"name": "owner",
					"type": "address"
				}
			],
			"name": "ERC721InvalidOwner",
			"type": "error"
		},
		{
			"inputs": [
				{
					"internalType": "address",
					"name": "receiver",
					"type": "address"
				}
			],
			"name": "ERC721InvalidReceiver",
			"type": "error"
		},
		{
			"inputs": [
				{
					"internalType": "address",
					"name": "sender",
					"type": "address"
				}
			],
			"name": "ERC721InvalidSender",
			"type": "error"
		},
		{
			"inputs": [
				{
					"internalType": "uint256",
					"name": "tokenId",
					"type": "uint256"
				}
			],
			"name": "ERC721NonexistentToken",
			"type": "error"
		},
		{
			"inputs": [],
			"name": "NoChange",
			"type": "error"
		},
		{
			"inputs": [
				{
					"internalType": "uint256",
					"name": "zchfBefore",
					"type": "uint256"
				},
				{
					"internalType": "uint256",
					"name": "zchfAfter",
					"type": "uint256"
				}
			],
			"name": "NoLoss",
			"type": "error"
		},
		{
			"inputs": [
				{
					"internalType": "address",
					"name": "input",
					"type": "address"
				},
				{
					"internalType": "address",
					"name": "needed",
					"type": "address"
				}
			],
			"name": "WrongInputToken",
			"type": "error"
		},
		{
			"inputs": [
				{
					"internalType": "address",
					"name": "output",
					"type": "address"
				},
				{
					"internalType": "address",
					"name": "needed",
					"type": "address"
				}
			],
			"name": "WrongOutputToken",
			"type": "error"
		},
		{
			"anonymous": false,
			"inputs": [
				{
					"indexed": true,
					"internalType": "address",
					"name": "owner",
					"type": "address"
				},
				{
					"indexed": true,
					"internalType": "address",
					"name": "approved",
					"type": "address"
				},
				{
					"indexed": true,
					"internalType": "uint256",
					"name": "tokenId",
					"type": "uint256"
				}
			],
			"name": "Approval",
			"type": "event"
		},
		{
			"anonymous": false,
			"inputs": [
				{
					"indexed": true,
					"internalType": "address",
					"name": "owner",
					"type": "address"
				},
				{
					"indexed": true,
					"internalType": "address",
					"name": "operator",
					"type": "address"
				},
				{
					"indexed": false,
					"internalType": "bool",
					"name": "approved",
					"type": "bool"
				}
			],
			"name": "ApprovalForAll",
			"type": "event"
		},
		{
			"anonymous": false,
			"inputs": [
				{
					"indexed": true,
					"internalType": "address",
					"name": "owner",
					"type": "address"
				},
				{
					"indexed": false,
					"internalType": "uint256",
					"name": "tokenId",
					"type": "uint256"
				},
				{
					"indexed": false,
					"internalType": "uint256",
					"name": "amount",
					"type": "uint256"
				},
				{
					"indexed": false,
					"internalType": "uint256",
					"name": "ref",
					"type": "uint256"
				}
			],
			"name": "Created",
			"type": "event"
		},
		{
			"anonymous": false,
			"inputs": [
				{
					"indexed": true,
					"internalType": "address",
					"name": "executor",
					"type": "address"
				},
				{
					"indexed": false,
					"internalType": "uint256",
					"name": "challengeIndex",
					"type": "uint256"
				},
				{
					"indexed": false,
					"internalType": "address",
					"name": "collateral",
					"type": "address"
				},
				{
					"indexed": false,
					"internalType": "uint256",
					"name": "size",
					"type": "uint256"
				},
				{
					"indexed": false,
					"internalType": "uint256",
					"name": "bidded",
					"type": "uint256"
				},
				{
					"indexed": false,
					"internalType": "uint256",
					"name": "swapped",
					"type": "uint256"
				},
				{
					"indexed": false,
					"internalType": "uint256",
					"name": "profit",
					"type": "uint256"
				}
			],
			"name": "Execute",
			"type": "event"
		},
		{
			"anonymous": false,
			"inputs": [
				{
					"indexed": true,
					"internalType": "address",
					"name": "from",
					"type": "address"
				},
				{
					"indexed": true,
					"internalType": "address",
					"name": "to",
					"type": "address"
				},
				{
					"indexed": true,
					"internalType": "uint256",
					"name": "tokenId",
					"type": "uint256"
				}
			],
			"name": "Transfer",
			"type": "event"
		},
		{
			"inputs": [
				{
					"internalType": "address",
					"name": "to",
					"type": "address"
				},
				{
					"internalType": "uint256",
					"name": "tokenId",
					"type": "uint256"
				}
			],
			"name": "approve",
			"outputs": [],
			"stateMutability": "nonpayable",
			"type": "function"
		},
		{
			"inputs": [
				{
					"internalType": "address",
					"name": "owner",
					"type": "address"
				}
			],
			"name": "balanceOf",
			"outputs": [
				{
					"internalType": "uint256",
					"name": "",
					"type": "uint256"
				}
			],
			"stateMutability": "view",
			"type": "function"
		},
		{
			"inputs": [
				{
					"internalType": "uint256",
					"name": "amount",
					"type": "uint256"
				}
			],
			"name": "create",
			"outputs": [
				{
					"internalType": "uint256",
					"name": "",
					"type": "uint256"
				}
			],
			"stateMutability": "nonpayable",
			"type": "function"
		},
		{
			"inputs": [
				{
					"internalType": "address",
					"name": "to",
					"type": "address"
				},
				{
					"internalType": "uint256",
					"name": "amount",
					"type": "uint256"
				}
			],
			"name": "createTo",
			"outputs": [
				{
					"internalType": "uint256",
					"name": "",
					"type": "uint256"
				}
			],
			"stateMutability": "nonpayable",
			"type": "function"
		},
		{
			"inputs": [
				{
					"internalType": "address[]",
					"name": "tokens",
					"type": "address[]"
				},
				{
					"internalType": "uint24[]",
					"name": "fees",
					"type": "uint24[]"
				}
			],
			"name": "encodePath",
			"outputs": [
				{
					"internalType": "bytes",
					"name": "",
					"type": "bytes"
				}
			],
			"stateMutability": "pure",
			"type": "function"
		},
		{
			"inputs": [
				{
					"internalType": "uint256",
					"name": "index",
					"type": "uint256"
				},
				{
					"internalType": "address[]",
					"name": "tokens",
					"type": "address[]"
				},
				{
					"internalType": "uint24[]",
					"name": "fees",
					"type": "uint24[]"
				},
				{
					"internalType": "uint256",
					"name": "amountIn",
					"type": "uint256"
				}
			],
			"name": "execute",
			"outputs": [],
			"stateMutability": "nonpayable",
			"type": "function"
		},
		{
			"inputs": [],
			"name": "fee",
			"outputs": [
				{
					"internalType": "uint256",
					"name": "",
					"type": "uint256"
				}
			],
			"stateMutability": "view",
			"type": "function"
		},
		{
			"inputs": [
				{
					"internalType": "uint256",
					"name": "tokenId",
					"type": "uint256"
				}
			],
			"name": "funding",
			"outputs": [
				{
					"internalType": "uint256",
					"name": "funds",
					"type": "uint256"
				},
				{
					"internalType": "uint256",
					"name": "ref",
					"type": "uint256"
				}
			],
			"stateMutability": "view",
			"type": "function"
		},
		{
			"inputs": [
				{
					"internalType": "uint256",
					"name": "tokenId",
					"type": "uint256"
				}
			],
			"name": "getApproved",
			"outputs": [
				{
					"internalType": "address",
					"name": "",
					"type": "address"
				}
			],
			"stateMutability": "view",
			"type": "function"
		},
		{
			"inputs": [],
			"name": "hub",
			"outputs": [
				{
					"internalType": "contract IMintingHubV1",
					"name": "",
					"type": "address"
				}
			],
			"stateMutability": "view",
			"type": "function"
		},
		{
			"inputs": [
				{
					"internalType": "address",
					"name": "owner",
					"type": "address"
				},
				{
					"internalType": "address",
					"name": "operator",
					"type": "address"
				}
			],
			"name": "isApprovedForAll",
			"outputs": [
				{
					"internalType": "bool",
					"name": "",
					"type": "bool"
				}
			],
			"stateMutability": "view",
			"type": "function"
		},
		{
			"inputs": [],
			"name": "name",
			"outputs": [
				{
					"internalType": "string",
					"name": "",
					"type": "string"
				}
			],
			"stateMutability": "view",
			"type": "function"
		},
		{
			"inputs": [
				{
					"internalType": "uint256",
					"name": "tokenId",
					"type": "uint256"
				}
			],
			"name": "ownerOf",
			"outputs": [
				{
					"internalType": "address",
					"name": "",
					"type": "address"
				}
			],
			"stateMutability": "view",
			"type": "function"
		},
		{
			"inputs": [
				{
					"internalType": "uint256",
					"name": "index",
					"type": "uint256"
				}
			],
			"name": "quoteAuction",
			"outputs": [
				{
					"internalType": "address",
					"name": "collateralToken",
					"type": "address"
				},
				{
					"internalType": "uint256",
					"name": "collateralAmount",
					"type": "uint256"
				},
				{
					"internalType": "uint256",
					"name": "zchfNeeded",
					"type": "uint256"
				}
			],
			"stateMutability": "view",
			"type": "function"
		},
		{
			"inputs": [
				{
					"internalType": "address[]",
					"name": "tokens",
					"type": "address[]"
				},
				{
					"internalType": "uint24[]",
					"name": "fees",
					"type": "uint24[]"
				},
				{
					"internalType": "uint256",
					"name": "amountIn",
					"type": "uint256"
				}
			],
			"name": "quoteUniswap",
			"outputs": [
				{
					"internalType": "uint256",
					"name": "",
					"type": "uint256"
				}
			],
			"stateMutability": "nonpayable",
			"type": "function"
		},
		{
			"inputs": [],
			"name": "quoter",
			"outputs": [
				{
					"internalType": "contract IQuoter",
					"name": "",
					"type": "address"
				}
			],
			"stateMutability": "view",
			"type": "function"
		},
		{
			"inputs": [],
			"name": "refRatio",
			"outputs": [
				{
					"internalType": "uint256",
					"name": "",
					"type": "uint256"
				}
			],
			"stateMutability": "view",
			"type": "function"
		},
		{
			"inputs": [
				{
					"internalType": "address",
					"name": "from",
					"type": "address"
				},
				{
					"internalType": "address",
					"name": "to",
					"type": "address"
				},
				{
					"internalType": "uint256",
					"name": "tokenId",
					"type": "uint256"
				}
			],
			"name": "safeTransferFrom",
			"outputs": [],
			"stateMutability": "nonpayable",
			"type": "function"
		},
		{
			"inputs": [
				{
					"internalType": "address",
					"name": "from",
					"type": "address"
				},
				{
					"internalType": "address",
					"name": "to",
					"type": "address"
				},
				{
					"internalType": "uint256",
					"name": "tokenId",
					"type": "uint256"
				},
				{
					"internalType": "bytes",
					"name": "data",
					"type": "bytes"
				}
			],
			"name": "safeTransferFrom",
			"outputs": [],
			"stateMutability": "nonpayable",
			"type": "function"
		},
		{
			"inputs": [
				{
					"internalType": "address",
					"name": "operator",
					"type": "address"
				},
				{
					"internalType": "bool",
					"name": "approved",
					"type": "bool"
				}
			],
			"name": "setApprovalForAll",
			"outputs": [],
			"stateMutability": "nonpayable",
			"type": "function"
		},
		{
			"inputs": [
				{
					"internalType": "bytes4",
					"name": "interfaceId",
					"type": "bytes4"
				}
			],
			"name": "supportsInterface",
			"outputs": [
				{
					"internalType": "bool",
					"name": "",
					"type": "bool"
				}
			],
			"stateMutability": "view",
			"type": "function"
		},
		{
			"inputs": [],
			"name": "swapRouter",
			"outputs": [
				{
					"internalType": "contract ISwapRouter",
					"name": "",
					"type": "address"
				}
			],
			"stateMutability": "view",
			"type": "function"
		},
		{
			"inputs": [],
			"name": "symbol",
			"outputs": [
				{
					"internalType": "string",
					"name": "",
					"type": "string"
				}
			],
			"stateMutability": "view",
			"type": "function"
		},
		{
			"inputs": [],
			"name": "tokenCnt",
			"outputs": [
				{
					"internalType": "uint256",
					"name": "",
					"type": "uint256"
				}
			],
			"stateMutability": "view",
			"type": "function"
		},
		{
			"inputs": [
				{
					"internalType": "uint256",
					"name": "tokenId",
					"type": "uint256"
				}
			],
			"name": "tokenURI",
			"outputs": [
				{
					"internalType": "string",
					"name": "",
					"type": "string"
				}
			],
			"stateMutability": "view",
			"type": "function"
		},
		{
			"inputs": [],
			"name": "totalFunds",
			"outputs": [
				{
					"internalType": "uint256",
					"name": "",
					"type": "uint256"
				}
			],
			"stateMutability": "view",
			"type": "function"
		},
		{
			"inputs": [
				{
					"internalType": "address",
					"name": "from",
					"type": "address"
				},
				{
					"internalType": "address",
					"name": "to",
					"type": "address"
				},
				{
					"internalType": "uint256",
					"name": "tokenId",
					"type": "uint256"
				}
			],
			"name": "transferFrom",
			"outputs": [],
			"stateMutability": "nonpayable",
			"type": "function"
		},
		{
			"inputs": [],
			"name": "zchf",
			"outputs": [
				{
					"internalType": "contract IFrankencoin",
					"name": "",
					"type": "address"
				}
			],
			"stateMutability": "view",
			"type": "function"
		}
	]
}